{"contracts/dynamicpool/DynamicPool.sol":{"DynamicPool":{"abi":[{"inputs":[{"internalType":"string","name":"_name","type":"string"},{"internalType":"address","name":"_owner","type":"address"},{"internalType":"address payable","name":"_factory","type":"address"},{"internalType":"bool","name":"_form","type":"bool"},{"internalType":"uint256","name":"_idx","type":"uint256"}],"stateMutability":"nonpayable","type":"constructor"},{"anonymous":false,"inputs":[{"indexed":false,"internalType":"address","name":"User","type":"address"},{"indexed":false,"internalType":"uint256","name":"Idx","type":"uint256"},{"indexed":false,"internalType":"bool","name":"Form","type":"bool"}],"name":"PoolTransfered","type":"event"},{"anonymous":false,"inputs":[{"indexed":false,"internalType":"address","name":"Pool","type":"address"},{"indexed":false,"internalType":"address","name":"User","type":"address"},{"indexed":false,"internalType":"uint256","name":"Deposit","type":"uint256"}],"name":"UserAdded","type":"event"},{"inputs":[{"internalType":"address","name":"_user","type":"address"}],"name":"changePool","outputs":[{"internalType":"bool","name":"","type":"bool"}],"stateMutability":"payable","type":"function"},{"inputs":[],"name":"factory","outputs":[{"internalType":"address payable","name":"","type":"address"}],"stateMutability":"view","type":"function"},{"inputs":[],"name":"getAllUsers","outputs":[{"components":[{"internalType":"address","name":"addr","type":"address"},{"internalType":"uint256","name":"deposit","type":"uint256"}],"internalType":"struct Struct.User[]","name":"","type":"tuple[]"}],"stateMutability":"view","type":"function"},{"inputs":[],"name":"getBalance","outputs":[{"internalType":"uint256","name":"","type":"uint256"}],"stateMutability":"view","type":"function"},{"inputs":[],"name":"getFactory","outputs":[{"internalType":"address","name":"","type":"address"}],"stateMutability":"view","type":"function"},{"inputs":[],"name":"getForm","outputs":[{"internalType":"bool","name":"","type":"bool"}],"stateMutability":"view","type":"function"},{"inputs":[],"name":"getIndex","outputs":[{"internalType":"uint256","name":"","type":"uint256"}],"stateMutability":"view","type":"function"},{"inputs":[],"name":"getMsgData","outputs":[{"internalType":"bytes","name":"","type":"bytes"}],"stateMutability":"view","type":"function"},{"inputs":[],"name":"getName","outputs":[{"internalType":"string","name":"","type":"string"}],"stateMutability":"view","type":"function"},{"inputs":[],"name":"getOwner","outputs":[{"internalType":"address","name":"","type":"address"}],"stateMutability":"view","type":"function"},{"inputs":[{"internalType":"address","name":"_user","type":"address"}],"name":"getUser","outputs":[{"components":[{"internalType":"address","name":"addr","type":"address"},{"internalType":"uint256","name":"deposit","type":"uint256"}],"internalType":"struct Struct.User","name":"","type":"tuple"},{"internalType":"uint256","name":"","type":"uint256"}],"stateMutability":"view","type":"function"},{"inputs":[],"name":"name","outputs":[{"internalType":"string","name":"","type":"string"}],"stateMutability":"view","type":"function"},{"stateMutability":"payable","type":"receive"}],"evm":{"bytecode":{"linkReferences":{},"object":"60806040523480156200001157600080fd5b5060405162001c1e38038062001c1e8339818101604052810190620000379190620003ac565b846000908162000048919062000694565b5083600160006101000a81548173ffffffffffffffffffffffffffffffffffffffff021916908373ffffffffffffffffffffffffffffffffffffffff16021790555082600260006101000a81548173ffffffffffffffffffffffffffffffffffffffff021916908373ffffffffffffffffffffffffffffffffffffffff16021790555081600260146101000a81548160ff0219169083151502179055508060038190555050505050506200077b565b6000604051905090565b600080fd5b600080fd5b600080fd5b600080fd5b6000601f19601f8301169050919050565b7f4e487b7100000000000000000000000000000000000000000000000000000000600052604160045260246000fd5b620001608262000115565b810181811067ffffffffffffffff8211171562000182576200018162000126565b5b80604052505050565b600062000197620000f7565b9050620001a5828262000155565b919050565b600067ffffffffffffffff821115620001c857620001c762000126565b5b620001d38262000115565b9050602081019050919050565b60005b8381101562000200578082015181840152602081019050620001e3565b60008484015250505050565b6000620002236200021d84620001aa565b6200018b565b90508281526020810184848401111562000242576200024162000110565b5b6200024f848285620001e0565b509392505050565b600082601f8301126200026f576200026e6200010b565b5b8151620002818482602086016200020c565b91505092915050565b600073ffffffffffffffffffffffffffffffffffffffff82169050919050565b6000620002b7826200028a565b9050919050565b620002c981620002aa565b8114620002d557600080fd5b50565b600081519050620002e981620002be565b92915050565b6000620002fc826200028a565b9050919050565b6200030e81620002ef565b81146200031a57600080fd5b50565b6000815190506200032e8162000303565b92915050565b60008115159050919050565b6200034b8162000334565b81146200035757600080fd5b50565b6000815190506200036b8162000340565b92915050565b6000819050919050565b620003868162000371565b81146200039257600080fd5b50565b600081519050620003a6816200037b565b92915050565b600080600080600060a08688031215620003cb57620003ca62000101565b5b600086015167ffffffffffffffff811115620003ec57620003eb62000106565b5b620003fa8882890162000257565b95505060206200040d88828901620002d8565b945050604062000420888289016200031d565b935050606062000433888289016200035a565b9250506080620004468882890162000395565b9150509295509295909350565b600081519050919050565b7f4e487b7100000000000000000000000000000000000000000000000000000000600052602260045260246000fd5b60006002820490506001821680620004a657607f821691505b602082108103620004bc57620004bb6200045e565b5b50919050565b60008190508160005260206000209050919050565b60006020601f8301049050919050565b600082821b905092915050565b600060088302620005267fffffffffffffffffffffffffffffffffffffffffffffffffffffffffffffffff82620004e7565b620005328683620004e7565b95508019841693508086168417925050509392505050565b6000819050919050565b6000620005756200056f620005698462000371565b6200054a565b62000371565b9050919050565b6000819050919050565b620005918362000554565b620005a9620005a0826200057c565b848454620004f4565b825550505050565b600090565b620005c0620005b1565b620005cd81848462000586565b505050565b5b81811015620005f557620005e9600082620005b6565b600181019050620005d3565b5050565b601f82111562000644576200060e81620004c2565b6200061984620004d7565b8101602085101562000629578190505b620006416200063885620004d7565b830182620005d2565b50505b505050565b600082821c905092915050565b6000620006696000198460080262000649565b1980831691505092915050565b600062000684838362000656565b9150826002028217905092915050565b6200069f8262000453565b67ffffffffffffffff811115620006bb57620006ba62000126565b5b620006c782546200048d565b620006d4828285620005f9565b600060209050601f8311600181146200070c5760008415620006f7578287015190505b62000703858262000676565b86555062000773565b601f1984166200071c86620004c2565b60005b8281101562000746578489015182556001820191506020850194506020810190506200071f565b8683101562000766578489015162000762601f89168262000656565b8355505b6001600288020188555050505b505050505050565b611493806200078b6000396000f3fe6080604052600436106100ab5760003560e01c806388cc58e41161006457806388cc58e4146101d1578063893d20e8146101fc578063c45a015514610227578063c8e7ca2e14610252578063d92ca7471461027d578063e2842d79146102a8576100b2565b806306fdde03146100b757806312065fe0146100e257806317d7de7c1461010d5780634339bc30146101385780636f77926b1461016857806381045ead146101a6576100b2565b366100b257005b600080fd5b3480156100c357600080fd5b506100cc6102d3565b6040516100d99190610c94565b60405180910390f35b3480156100ee57600080fd5b506100f7610361565b6040516101049190610ccf565b60405180910390f35b34801561011957600080fd5b50610122610369565b60405161012f9190610c94565b60405180910390f35b610152600480360381019061014d9190610d4d565b6103fb565b60405161015f9190610d95565b60405180910390f35b34801561017457600080fd5b5061018f600480360381019061018a9190610d4d565b6106c5565b60405161019d929190610dfd565b60405180910390f35b3480156101b257600080fd5b506101bb610842565b6040516101c89190610ccf565b60405180910390f35b3480156101dd57600080fd5b506101e661084c565b6040516101f39190610e35565b60405180910390f35b34801561020857600080fd5b50610211610876565b60405161021e9190610e35565b60405180910390f35b34801561023357600080fd5b5061023c6108a0565b6040516102499190610e71565b60405180910390f35b34801561025e57600080fd5b506102676108c6565b6040516102749190610ee1565b60405180910390f35b34801561028957600080fd5b50610292610918565b60405161029f9190610d95565b60405180910390f35b3480156102b457600080fd5b506102bd61092f565b6040516102ca9190610fe1565b60405180910390f35b600080546102e090611032565b80601f016020809104026020016040519081016040528092919081815260200182805461030c90611032565b80156103595780601f1061032e57610100808354040283529160200191610359565b820191906000526020600020905b81548152906001019060200180831161033c57829003601f168201915b505050505081565b600047905090565b60606000805461037890611032565b80601f01602080910402602001604051908101604052809291908181526020018280546103a490611032565b80156103f15780601f106103c6576101008083540402835291602001916103f1565b820191906000526020600020905b8154815290600101906020018083116103d457829003601f168201915b5050505050905090565b6000806000610409846106c5565b91509150600073ffffffffffffffffffffffffffffffffffffffff16826000015173ffffffffffffffffffffffffffffffffffffffff1614610480576040517f08c379a0000000000000000000000000000000000000000000000000000000008152600401610477906110d5565b60405180910390fd5b600080600260009054906101000a900473ffffffffffffffffffffffffffffffffffffffff1673ffffffffffffffffffffffffffffffffffffffff16306003546040516024016104d19291906110f5565b6040516020818303038152906040527f97136856000000000000000000000000000000000000000000000000000000007bffffffffffffffffffffffffffffffffffffffffffffffffffffffff19166020820180517bffffffffffffffffffffffffffffffffffffffffffffffffffffffff838183161783525050505060405161055b919061115a565b6000604051808303816000865af19150503d8060008114610598576040519150601f19603f3d011682016040523d82523d6000602084013e61059d565b606091505b5091509150816105e2576040517f08c379a00000000000000000000000000000000000000000000000000000000081526004016105d9906111e3565b60405180910390fd5b6000818060200190518101906105f8919061122f565b905061060481866109ee565b5060006106118287610a77565b9050600485815481106106275761062661125c565b5b9060005260206000209060020201600080820160006101000a81549073ffffffffffffffffffffffffffffffffffffffff0219169055600182016000905550507f62ca24e8cd93ea5fd2d278efeee93eefc315827af5f69967b4008e41f315ebf98660000151600354600260149054906101000a900460ff166040516106af9392919061128b565b60405180910390a1809650505050505050919050565b6106cd610bd4565b600080600090505b600480549050811015610808578373ffffffffffffffffffffffffffffffffffffffff166004828154811061070d5761070c61125c565b5b906000526020600020906002020160000160009054906101000a900473ffffffffffffffffffffffffffffffffffffffff1673ffffffffffffffffffffffffffffffffffffffff16036107f5576004818154811061076e5761076d61125c565b5b906000526020600020906002020181816040518060400160405290816000820160009054906101000a900473ffffffffffffffffffffffffffffffffffffffff1673ffffffffffffffffffffffffffffffffffffffff1673ffffffffffffffffffffffffffffffffffffffff1681526020016001820154815250509150925092505061083d565b8080610800906112f1565b9150506106d5565b506040518060400160405280600073ffffffffffffffffffffffffffffffffffffffff16815260200160008152506000915091505b915091565b6000600354905090565b6000600260009054906101000a900473ffffffffffffffffffffffffffffffffffffffff16905090565b6000600160009054906101000a900473ffffffffffffffffffffffffffffffffffffffff16905090565b600260009054906101000a900473ffffffffffffffffffffffffffffffffffffffff1681565b60606108d0610bc7565b8080601f016020809104026020016040519081016040528093929190818152602001838380828437600081840152601f19601f82011690508083019250505050505050905090565b6000600260149054906101000a900460ff16905090565b60606004805480602002602001604051908101604052809291908181526020016000905b828210156109e557838290600052602060002090600202016040518060400160405290816000820160009054906101000a900473ffffffffffffffffffffffffffffffffffffffff1673ffffffffffffffffffffffffffffffffffffffff1673ffffffffffffffffffffffffffffffffffffffff16815260200160018201548152505081526020019060010190610953565b50505050905090565b6000808373ffffffffffffffffffffffffffffffffffffffff166108fc84602001519081150290604051600060405180830381858888f19350505050905080610a6c576040517f08c379a0000000000000000000000000000000000000000000000000000000008152600401610a63906113ab565b60405180910390fd5b600191505092915050565b6000808373ffffffffffffffffffffffffffffffffffffffff1683600001518460200151604051602401610aac9291906110f5565b6040516020818303038152906040527fd3017193000000000000000000000000000000000000000000000000000000007bffffffffffffffffffffffffffffffffffffffffffffffffffffffff19166020820180517bffffffffffffffffffffffffffffffffffffffffffffffffffffffff8381831617835250505050604051610b36919061115a565b6000604051808303816000865af19150503d8060008114610b73576040519150601f19603f3d011682016040523d82523d6000602084013e610b78565b606091505b5050905080610bbc576040517f08c379a0000000000000000000000000000000000000000000000000000000008152600401610bb39061143d565b60405180910390fd5b600191505092915050565b3660008036915091509091565b6040518060400160405280600073ffffffffffffffffffffffffffffffffffffffff168152602001600081525090565b600081519050919050565b600082825260208201905092915050565b60005b83811015610c3e578082015181840152602081019050610c23565b60008484015250505050565b6000601f19601f8301169050919050565b6000610c6682610c04565b610c708185610c0f565b9350610c80818560208601610c20565b610c8981610c4a565b840191505092915050565b60006020820190508181036000830152610cae8184610c5b565b905092915050565b6000819050919050565b610cc981610cb6565b82525050565b6000602082019050610ce46000830184610cc0565b92915050565b600080fd5b600073ffffffffffffffffffffffffffffffffffffffff82169050919050565b6000610d1a82610cef565b9050919050565b610d2a81610d0f565b8114610d3557600080fd5b50565b600081359050610d4781610d21565b92915050565b600060208284031215610d6357610d62610cea565b5b6000610d7184828501610d38565b91505092915050565b60008115159050919050565b610d8f81610d7a565b82525050565b6000602082019050610daa6000830184610d86565b92915050565b610db981610d0f565b82525050565b610dc881610cb6565b82525050565b604082016000820151610de46000850182610db0565b506020820151610df76020850182610dbf565b50505050565b6000606082019050610e126000830185610dce565b610e1f6040830184610cc0565b9392505050565b610e2f81610d0f565b82525050565b6000602082019050610e4a6000830184610e26565b92915050565b6000610e5b82610cef565b9050919050565b610e6b81610e50565b82525050565b6000602082019050610e866000830184610e62565b92915050565b600081519050919050565b600082825260208201905092915050565b6000610eb382610e8c565b610ebd8185610e97565b9350610ecd818560208601610c20565b610ed681610c4a565b840191505092915050565b60006020820190508181036000830152610efb8184610ea8565b905092915050565b600081519050919050565b600082825260208201905092915050565b6000819050602082019050919050565b604082016000820151610f456000850182610db0565b506020820151610f586020850182610dbf565b50505050565b6000610f6a8383610f2f565b60408301905092915050565b6000602082019050919050565b6000610f8e82610f03565b610f988185610f0e565b9350610fa383610f1f565b8060005b83811015610fd4578151610fbb8882610f5e565b9750610fc683610f76565b925050600181019050610fa7565b5085935050505092915050565b60006020820190508181036000830152610ffb8184610f83565b905092915050565b7f4e487b7100000000000000000000000000000000000000000000000000000000600052602260045260246000fd5b6000600282049050600182168061104a57607f821691505b60208210810361105d5761105c611003565b5b50919050565b7f44796e616d6963506f6f6c204572726f723a20496e76616c696420616464726560008201527f7373205573657220646964206e6f74206465706f73697465642e000000000000602082015250565b60006110bf603a83610c0f565b91506110ca82611063565b604082019050919050565b600060208201905081810360008301526110ee816110b2565b9050919050565b600060408201905061110a6000830185610e26565b6111176020830184610cc0565b9392505050565b600081905092915050565b600061113482610e8c565b61113e818561111e565b935061114e818560208601610c20565b80840191505092915050565b60006111668284611129565b915081905092915050565b7f44796e616d6963506f6f6c204572726f723a204661696c656420746f2067657460008201527f204f6666656e736520506f6f6c20616464726573732e00000000000000000000602082015250565b60006111cd603683610c0f565b91506111d882611171565b604082019050919050565b600060208201905081810360008301526111fc816111c0565b9050919050565b61120c81610e50565b811461121757600080fd5b50565b60008151905061122981611203565b92915050565b60006020828403121561124557611244610cea565b5b60006112538482850161121a565b91505092915050565b7f4e487b7100000000000000000000000000000000000000000000000000000000600052603260045260246000fd5b60006060820190506112a06000830186610e26565b6112ad6020830185610cc0565b6112ba6040830184610d86565b949350505050565b7f4e487b7100000000000000000000000000000000000000000000000000000000600052601160045260246000fd5b60006112fc82610cb6565b91507fffffffffffffffffffffffffffffffffffffffffffffffffffffffffffffffff820361132e5761132d6112c2565b5b600182019050919050565b7f44796e616d6963506f6f6c204572726f723a204661696c656420746f206d6f7660008201527f652055736572204465706f7369742e0000000000000000000000000000000000602082015250565b6000611395602f83610c0f565b91506113a082611339565b604082019050919050565b600060208201905081810360008301526113c481611388565b9050919050565b7f44796e616d6963506f6f6c204572726f723a204661696c656420746f2073746f60008201527f7265205573657220746f206f6666656e7365506f6f3b2e000000000000000000602082015250565b6000611427603783610c0f565b9150611432826113cb565b604082019050919050565b600060208201905081810360008301526114568161141a565b905091905056fea26469706673582212205f94a947983e432ec7a5703dbcc3a7969966f52cc7a3ecf0c6611d7cbf8b766e64736f6c63430008140033","opcodes":"PUSH1 0x80 PUSH1 0x40 MSTORE CALLVALUE DUP1 ISZERO PUSH3 0x11 JUMPI PUSH1 0x0 DUP1 REVERT JUMPDEST POP PUSH1 0x40 MLOAD PUSH3 0x1C1E CODESIZE SUB DUP1 PUSH3 0x1C1E DUP4 CODECOPY DUP2 DUP2 ADD PUSH1 0x40 MSTORE DUP2 ADD SWAP1 PUSH3 0x37 SWAP2 SWAP1 PUSH3 0x3AC JUMP JUMPDEST DUP5 PUSH1 0x0 SWAP1 DUP2 PUSH3 0x48 SWAP2 SWAP1 PUSH3 0x694 JUMP JUMPDEST POP DUP4 PUSH1 0x1 PUSH1 0x0 PUSH2 0x100 EXP DUP2 SLOAD DUP2 PUSH20 0xFFFFFFFFFFFFFFFFFFFFFFFFFFFFFFFFFFFFFFFF MUL NOT AND SWAP1 DUP4 PUSH20 0xFFFFFFFFFFFFFFFFFFFFFFFFFFFFFFFFFFFFFFFF AND MUL OR SWAP1 SSTORE POP DUP3 PUSH1 0x2 PUSH1 0x0 PUSH2 0x100 EXP DUP2 SLOAD DUP2 PUSH20 0xFFFFFFFFFFFFFFFFFFFFFFFFFFFFFFFFFFFFFFFF MUL NOT AND SWAP1 DUP4 PUSH20 0xFFFFFFFFFFFFFFFFFFFFFFFFFFFFFFFFFFFFFFFF AND MUL OR SWAP1 SSTORE POP DUP2 PUSH1 0x2 PUSH1 0x14 PUSH2 0x100 EXP DUP2 SLOAD DUP2 PUSH1 0xFF MUL NOT AND SWAP1 DUP4 ISZERO ISZERO MUL OR SWAP1 SSTORE POP DUP1 PUSH1 0x3 DUP2 SWAP1 SSTORE POP POP POP POP POP POP PUSH3 0x77B JUMP JUMPDEST PUSH1 0x0 PUSH1 0x40 MLOAD SWAP1 POP SWAP1 JUMP JUMPDEST PUSH1 0x0 DUP1 REVERT JUMPDEST PUSH1 0x0 DUP1 REVERT JUMPDEST PUSH1 0x0 DUP1 REVERT JUMPDEST PUSH1 0x0 DUP1 REVERT JUMPDEST PUSH1 0x0 PUSH1 0x1F NOT PUSH1 0x1F DUP4 ADD AND SWAP1 POP SWAP2 SWAP1 POP JUMP JUMPDEST PUSH32 0x4E487B7100000000000000000000000000000000000000000000000000000000 PUSH1 0x0 MSTORE PUSH1 0x41 PUSH1 0x4 MSTORE PUSH1 0x24 PUSH1 0x0 REVERT JUMPDEST PUSH3 0x160 DUP3 PUSH3 0x115 JUMP JUMPDEST DUP2 ADD DUP2 DUP2 LT PUSH8 0xFFFFFFFFFFFFFFFF DUP3 GT OR ISZERO PUSH3 0x182 JUMPI PUSH3 0x181 PUSH3 0x126 JUMP JUMPDEST JUMPDEST DUP1 PUSH1 0x40 MSTORE POP POP POP JUMP JUMPDEST PUSH1 0x0 PUSH3 0x197 PUSH3 0xF7 JUMP JUMPDEST SWAP1 POP PUSH3 0x1A5 DUP3 DUP3 PUSH3 0x155 JUMP JUMPDEST SWAP2 SWAP1 POP JUMP JUMPDEST PUSH1 0x0 PUSH8 0xFFFFFFFFFFFFFFFF DUP3 GT ISZERO PUSH3 0x1C8 JUMPI PUSH3 0x1C7 PUSH3 0x126 JUMP JUMPDEST JUMPDEST PUSH3 0x1D3 DUP3 PUSH3 0x115 JUMP JUMPDEST SWAP1 POP PUSH1 0x20 DUP2 ADD SWAP1 POP SWAP2 SWAP1 POP JUMP JUMPDEST PUSH1 0x0 JUMPDEST DUP4 DUP2 LT ISZERO PUSH3 0x200 JUMPI DUP1 DUP3 ADD MLOAD DUP2 DUP5 ADD MSTORE PUSH1 0x20 DUP2 ADD SWAP1 POP PUSH3 0x1E3 JUMP JUMPDEST PUSH1 0x0 DUP5 DUP5 ADD MSTORE POP POP POP POP JUMP JUMPDEST PUSH1 0x0 PUSH3 0x223 PUSH3 0x21D DUP5 PUSH3 0x1AA JUMP JUMPDEST PUSH3 0x18B JUMP JUMPDEST SWAP1 POP DUP3 DUP2 MSTORE PUSH1 0x20 DUP2 ADD DUP5 DUP5 DUP5 ADD GT ISZERO PUSH3 0x242 JUMPI PUSH3 0x241 PUSH3 0x110 JUMP JUMPDEST JUMPDEST PUSH3 0x24F DUP5 DUP3 DUP6 PUSH3 0x1E0 JUMP JUMPDEST POP SWAP4 SWAP3 POP POP POP JUMP JUMPDEST PUSH1 0x0 DUP3 PUSH1 0x1F DUP4 ADD SLT PUSH3 0x26F JUMPI PUSH3 0x26E PUSH3 0x10B JUMP JUMPDEST JUMPDEST DUP2 MLOAD PUSH3 0x281 DUP5 DUP3 PUSH1 0x20 DUP7 ADD PUSH3 0x20C JUMP JUMPDEST SWAP2 POP POP SWAP3 SWAP2 POP POP JUMP JUMPDEST PUSH1 0x0 PUSH20 0xFFFFFFFFFFFFFFFFFFFFFFFFFFFFFFFFFFFFFFFF DUP3 AND SWAP1 POP SWAP2 SWAP1 POP JUMP JUMPDEST PUSH1 0x0 PUSH3 0x2B7 DUP3 PUSH3 0x28A JUMP JUMPDEST SWAP1 POP SWAP2 SWAP1 POP JUMP JUMPDEST PUSH3 0x2C9 DUP2 PUSH3 0x2AA JUMP JUMPDEST DUP2 EQ PUSH3 0x2D5 JUMPI PUSH1 0x0 DUP1 REVERT JUMPDEST POP JUMP JUMPDEST PUSH1 0x0 DUP2 MLOAD SWAP1 POP PUSH3 0x2E9 DUP2 PUSH3 0x2BE JUMP JUMPDEST SWAP3 SWAP2 POP POP JUMP JUMPDEST PUSH1 0x0 PUSH3 0x2FC DUP3 PUSH3 0x28A JUMP JUMPDEST SWAP1 POP SWAP2 SWAP1 POP JUMP JUMPDEST PUSH3 0x30E DUP2 PUSH3 0x2EF JUMP JUMPDEST DUP2 EQ PUSH3 0x31A JUMPI PUSH1 0x0 DUP1 REVERT JUMPDEST POP JUMP JUMPDEST PUSH1 0x0 DUP2 MLOAD SWAP1 POP PUSH3 0x32E DUP2 PUSH3 0x303 JUMP JUMPDEST SWAP3 SWAP2 POP POP JUMP JUMPDEST PUSH1 0x0 DUP2 ISZERO ISZERO SWAP1 POP SWAP2 SWAP1 POP JUMP JUMPDEST PUSH3 0x34B DUP2 PUSH3 0x334 JUMP JUMPDEST DUP2 EQ PUSH3 0x357 JUMPI PUSH1 0x0 DUP1 REVERT JUMPDEST POP JUMP JUMPDEST PUSH1 0x0 DUP2 MLOAD SWAP1 POP PUSH3 0x36B DUP2 PUSH3 0x340 JUMP JUMPDEST SWAP3 SWAP2 POP POP JUMP JUMPDEST PUSH1 0x0 DUP2 SWAP1 POP SWAP2 SWAP1 POP JUMP JUMPDEST PUSH3 0x386 DUP2 PUSH3 0x371 JUMP JUMPDEST DUP2 EQ PUSH3 0x392 JUMPI PUSH1 0x0 DUP1 REVERT JUMPDEST POP JUMP JUMPDEST PUSH1 0x0 DUP2 MLOAD SWAP1 POP PUSH3 0x3A6 DUP2 PUSH3 0x37B JUMP JUMPDEST SWAP3 SWAP2 POP POP JUMP JUMPDEST PUSH1 0x0 DUP1 PUSH1 0x0 DUP1 PUSH1 0x0 PUSH1 0xA0 DUP7 DUP9 SUB SLT ISZERO PUSH3 0x3CB JUMPI PUSH3 0x3CA PUSH3 0x101 JUMP JUMPDEST JUMPDEST PUSH1 0x0 DUP7 ADD MLOAD PUSH8 0xFFFFFFFFFFFFFFFF DUP2 GT ISZERO PUSH3 0x3EC JUMPI PUSH3 0x3EB PUSH3 0x106 JUMP JUMPDEST JUMPDEST PUSH3 0x3FA DUP9 DUP3 DUP10 ADD PUSH3 0x257 JUMP JUMPDEST SWAP6 POP POP PUSH1 0x20 PUSH3 0x40D DUP9 DUP3 DUP10 ADD PUSH3 0x2D8 JUMP JUMPDEST SWAP5 POP POP PUSH1 0x40 PUSH3 0x420 DUP9 DUP3 DUP10 ADD PUSH3 0x31D JUMP JUMPDEST SWAP4 POP POP PUSH1 0x60 PUSH3 0x433 DUP9 DUP3 DUP10 ADD PUSH3 0x35A JUMP JUMPDEST SWAP3 POP POP PUSH1 0x80 PUSH3 0x446 DUP9 DUP3 DUP10 ADD PUSH3 0x395 JUMP JUMPDEST SWAP2 POP POP SWAP3 SWAP6 POP SWAP3 SWAP6 SWAP1 SWAP4 POP JUMP JUMPDEST PUSH1 0x0 DUP2 MLOAD SWAP1 POP SWAP2 SWAP1 POP JUMP JUMPDEST PUSH32 0x4E487B7100000000000000000000000000000000000000000000000000000000 PUSH1 0x0 MSTORE PUSH1 0x22 PUSH1 0x4 MSTORE PUSH1 0x24 PUSH1 0x0 REVERT JUMPDEST PUSH1 0x0 PUSH1 0x2 DUP3 DIV SWAP1 POP PUSH1 0x1 DUP3 AND DUP1 PUSH3 0x4A6 JUMPI PUSH1 0x7F DUP3 AND SWAP2 POP JUMPDEST PUSH1 0x20 DUP3 LT DUP2 SUB PUSH3 0x4BC JUMPI PUSH3 0x4BB PUSH3 0x45E JUMP JUMPDEST JUMPDEST POP SWAP2 SWAP1 POP JUMP JUMPDEST PUSH1 0x0 DUP2 SWAP1 POP DUP2 PUSH1 0x0 MSTORE PUSH1 0x20 PUSH1 0x0 KECCAK256 SWAP1 POP SWAP2 SWAP1 POP JUMP JUMPDEST PUSH1 0x0 PUSH1 0x20 PUSH1 0x1F DUP4 ADD DIV SWAP1 POP SWAP2 SWAP1 POP JUMP JUMPDEST PUSH1 0x0 DUP3 DUP3 SHL SWAP1 POP SWAP3 SWAP2 POP POP JUMP JUMPDEST PUSH1 0x0 PUSH1 0x8 DUP4 MUL PUSH3 0x526 PUSH32 0xFFFFFFFFFFFFFFFFFFFFFFFFFFFFFFFFFFFFFFFFFFFFFFFFFFFFFFFFFFFFFFFF DUP3 PUSH3 0x4E7 JUMP JUMPDEST PUSH3 0x532 DUP7 DUP4 PUSH3 0x4E7 JUMP JUMPDEST SWAP6 POP DUP1 NOT DUP5 AND SWAP4 POP DUP1 DUP7 AND DUP5 OR SWAP3 POP POP POP SWAP4 SWAP3 POP POP POP JUMP JUMPDEST PUSH1 0x0 DUP2 SWAP1 POP SWAP2 SWAP1 POP JUMP JUMPDEST PUSH1 0x0 PUSH3 0x575 PUSH3 0x56F PUSH3 0x569 DUP5 PUSH3 0x371 JUMP JUMPDEST PUSH3 0x54A JUMP JUMPDEST PUSH3 0x371 JUMP JUMPDEST SWAP1 POP SWAP2 SWAP1 POP JUMP JUMPDEST PUSH1 0x0 DUP2 SWAP1 POP SWAP2 SWAP1 POP JUMP JUMPDEST PUSH3 0x591 DUP4 PUSH3 0x554 JUMP JUMPDEST PUSH3 0x5A9 PUSH3 0x5A0 DUP3 PUSH3 0x57C JUMP JUMPDEST DUP5 DUP5 SLOAD PUSH3 0x4F4 JUMP JUMPDEST DUP3 SSTORE POP POP POP POP JUMP JUMPDEST PUSH1 0x0 SWAP1 JUMP JUMPDEST PUSH3 0x5C0 PUSH3 0x5B1 JUMP JUMPDEST PUSH3 0x5CD DUP2 DUP5 DUP5 PUSH3 0x586 JUMP JUMPDEST POP POP POP JUMP JUMPDEST JUMPDEST DUP2 DUP2 LT ISZERO PUSH3 0x5F5 JUMPI PUSH3 0x5E9 PUSH1 0x0 DUP3 PUSH3 0x5B6 JUMP JUMPDEST PUSH1 0x1 DUP2 ADD SWAP1 POP PUSH3 0x5D3 JUMP JUMPDEST POP POP JUMP JUMPDEST PUSH1 0x1F DUP3 GT ISZERO PUSH3 0x644 JUMPI PUSH3 0x60E DUP2 PUSH3 0x4C2 JUMP JUMPDEST PUSH3 0x619 DUP5 PUSH3 0x4D7 JUMP JUMPDEST DUP2 ADD PUSH1 0x20 DUP6 LT ISZERO PUSH3 0x629 JUMPI DUP2 SWAP1 POP JUMPDEST PUSH3 0x641 PUSH3 0x638 DUP6 PUSH3 0x4D7 JUMP JUMPDEST DUP4 ADD DUP3 PUSH3 0x5D2 JUMP JUMPDEST POP POP JUMPDEST POP POP POP JUMP JUMPDEST PUSH1 0x0 DUP3 DUP3 SHR SWAP1 POP SWAP3 SWAP2 POP POP JUMP JUMPDEST PUSH1 0x0 PUSH3 0x669 PUSH1 0x0 NOT DUP5 PUSH1 0x8 MUL PUSH3 0x649 JUMP JUMPDEST NOT DUP1 DUP4 AND SWAP2 POP POP SWAP3 SWAP2 POP POP JUMP JUMPDEST PUSH1 0x0 PUSH3 0x684 DUP4 DUP4 PUSH3 0x656 JUMP JUMPDEST SWAP2 POP DUP3 PUSH1 0x2 MUL DUP3 OR SWAP1 POP SWAP3 SWAP2 POP POP JUMP JUMPDEST PUSH3 0x69F DUP3 PUSH3 0x453 JUMP JUMPDEST PUSH8 0xFFFFFFFFFFFFFFFF DUP2 GT ISZERO PUSH3 0x6BB JUMPI PUSH3 0x6BA PUSH3 0x126 JUMP JUMPDEST JUMPDEST PUSH3 0x6C7 DUP3 SLOAD PUSH3 0x48D JUMP JUMPDEST PUSH3 0x6D4 DUP3 DUP3 DUP6 PUSH3 0x5F9 JUMP JUMPDEST PUSH1 0x0 PUSH1 0x20 SWAP1 POP PUSH1 0x1F DUP4 GT PUSH1 0x1 DUP2 EQ PUSH3 0x70C JUMPI PUSH1 0x0 DUP5 ISZERO PUSH3 0x6F7 JUMPI DUP3 DUP8 ADD MLOAD SWAP1 POP JUMPDEST PUSH3 0x703 DUP6 DUP3 PUSH3 0x676 JUMP JUMPDEST DUP7 SSTORE POP PUSH3 0x773 JUMP JUMPDEST PUSH1 0x1F NOT DUP5 AND PUSH3 0x71C DUP7 PUSH3 0x4C2 JUMP JUMPDEST PUSH1 0x0 JUMPDEST DUP3 DUP2 LT ISZERO PUSH3 0x746 JUMPI DUP5 DUP10 ADD MLOAD DUP3 SSTORE PUSH1 0x1 DUP3 ADD SWAP2 POP PUSH1 0x20 DUP6 ADD SWAP5 POP PUSH1 0x20 DUP2 ADD SWAP1 POP PUSH3 0x71F JUMP JUMPDEST DUP7 DUP4 LT ISZERO PUSH3 0x766 JUMPI DUP5 DUP10 ADD MLOAD PUSH3 0x762 PUSH1 0x1F DUP10 AND DUP3 PUSH3 0x656 JUMP JUMPDEST DUP4 SSTORE POP JUMPDEST PUSH1 0x1 PUSH1 0x2 DUP9 MUL ADD DUP9 SSTORE POP POP POP JUMPDEST POP POP POP POP POP POP JUMP JUMPDEST PUSH2 0x1493 DUP1 PUSH3 0x78B PUSH1 0x0 CODECOPY PUSH1 0x0 RETURN INVALID PUSH1 0x80 PUSH1 0x40 MSTORE PUSH1 0x4 CALLDATASIZE LT PUSH2 0xAB JUMPI PUSH1 0x0 CALLDATALOAD PUSH1 0xE0 SHR DUP1 PUSH4 0x88CC58E4 GT PUSH2 0x64 JUMPI DUP1 PUSH4 0x88CC58E4 EQ PUSH2 0x1D1 JUMPI DUP1 PUSH4 0x893D20E8 EQ PUSH2 0x1FC JUMPI DUP1 PUSH4 0xC45A0155 EQ PUSH2 0x227 JUMPI DUP1 PUSH4 0xC8E7CA2E EQ PUSH2 0x252 JUMPI DUP1 PUSH4 0xD92CA747 EQ PUSH2 0x27D JUMPI DUP1 PUSH4 0xE2842D79 EQ PUSH2 0x2A8 JUMPI PUSH2 0xB2 JUMP JUMPDEST DUP1 PUSH4 0x6FDDE03 EQ PUSH2 0xB7 JUMPI DUP1 PUSH4 0x12065FE0 EQ PUSH2 0xE2 JUMPI DUP1 PUSH4 0x17D7DE7C EQ PUSH2 0x10D JUMPI DUP1 PUSH4 0x4339BC30 EQ PUSH2 0x138 JUMPI DUP1 PUSH4 0x6F77926B EQ PUSH2 0x168 JUMPI DUP1 PUSH4 0x81045EAD EQ PUSH2 0x1A6 JUMPI PUSH2 0xB2 JUMP JUMPDEST CALLDATASIZE PUSH2 0xB2 JUMPI STOP JUMPDEST PUSH1 0x0 DUP1 REVERT JUMPDEST CALLVALUE DUP1 ISZERO PUSH2 0xC3 JUMPI PUSH1 0x0 DUP1 REVERT JUMPDEST POP PUSH2 0xCC PUSH2 0x2D3 JUMP JUMPDEST PUSH1 0x40 MLOAD PUSH2 0xD9 SWAP2 SWAP1 PUSH2 0xC94 JUMP JUMPDEST PUSH1 0x40 MLOAD DUP1 SWAP2 SUB SWAP1 RETURN JUMPDEST CALLVALUE DUP1 ISZERO PUSH2 0xEE JUMPI PUSH1 0x0 DUP1 REVERT JUMPDEST POP PUSH2 0xF7 PUSH2 0x361 JUMP JUMPDEST PUSH1 0x40 MLOAD PUSH2 0x104 SWAP2 SWAP1 PUSH2 0xCCF JUMP JUMPDEST PUSH1 0x40 MLOAD DUP1 SWAP2 SUB SWAP1 RETURN JUMPDEST CALLVALUE DUP1 ISZERO PUSH2 0x119 JUMPI PUSH1 0x0 DUP1 REVERT JUMPDEST POP PUSH2 0x122 PUSH2 0x369 JUMP JUMPDEST PUSH1 0x40 MLOAD PUSH2 0x12F SWAP2 SWAP1 PUSH2 0xC94 JUMP JUMPDEST PUSH1 0x40 MLOAD DUP1 SWAP2 SUB SWAP1 RETURN JUMPDEST PUSH2 0x152 PUSH1 0x4 DUP1 CALLDATASIZE SUB DUP2 ADD SWAP1 PUSH2 0x14D SWAP2 SWAP1 PUSH2 0xD4D JUMP JUMPDEST PUSH2 0x3FB JUMP JUMPDEST PUSH1 0x40 MLOAD PUSH2 0x15F SWAP2 SWAP1 PUSH2 0xD95 JUMP JUMPDEST PUSH1 0x40 MLOAD DUP1 SWAP2 SUB SWAP1 RETURN JUMPDEST CALLVALUE DUP1 ISZERO PUSH2 0x174 JUMPI PUSH1 0x0 DUP1 REVERT JUMPDEST POP PUSH2 0x18F PUSH1 0x4 DUP1 CALLDATASIZE SUB DUP2 ADD SWAP1 PUSH2 0x18A SWAP2 SWAP1 PUSH2 0xD4D JUMP JUMPDEST PUSH2 0x6C5 JUMP JUMPDEST PUSH1 0x40 MLOAD PUSH2 0x19D SWAP3 SWAP2 SWAP1 PUSH2 0xDFD JUMP JUMPDEST PUSH1 0x40 MLOAD DUP1 SWAP2 SUB SWAP1 RETURN JUMPDEST CALLVALUE DUP1 ISZERO PUSH2 0x1B2 JUMPI PUSH1 0x0 DUP1 REVERT JUMPDEST POP PUSH2 0x1BB PUSH2 0x842 JUMP JUMPDEST PUSH1 0x40 MLOAD PUSH2 0x1C8 SWAP2 SWAP1 PUSH2 0xCCF JUMP JUMPDEST PUSH1 0x40 MLOAD DUP1 SWAP2 SUB SWAP1 RETURN JUMPDEST CALLVALUE DUP1 ISZERO PUSH2 0x1DD JUMPI PUSH1 0x0 DUP1 REVERT JUMPDEST POP PUSH2 0x1E6 PUSH2 0x84C JUMP JUMPDEST PUSH1 0x40 MLOAD PUSH2 0x1F3 SWAP2 SWAP1 PUSH2 0xE35 JUMP JUMPDEST PUSH1 0x40 MLOAD DUP1 SWAP2 SUB SWAP1 RETURN JUMPDEST CALLVALUE DUP1 ISZERO PUSH2 0x208 JUMPI PUSH1 0x0 DUP1 REVERT JUMPDEST POP PUSH2 0x211 PUSH2 0x876 JUMP JUMPDEST PUSH1 0x40 MLOAD PUSH2 0x21E SWAP2 SWAP1 PUSH2 0xE35 JUMP JUMPDEST PUSH1 0x40 MLOAD DUP1 SWAP2 SUB SWAP1 RETURN JUMPDEST CALLVALUE DUP1 ISZERO PUSH2 0x233 JUMPI PUSH1 0x0 DUP1 REVERT JUMPDEST POP PUSH2 0x23C PUSH2 0x8A0 JUMP JUMPDEST PUSH1 0x40 MLOAD PUSH2 0x249 SWAP2 SWAP1 PUSH2 0xE71 JUMP JUMPDEST PUSH1 0x40 MLOAD DUP1 SWAP2 SUB SWAP1 RETURN JUMPDEST CALLVALUE DUP1 ISZERO PUSH2 0x25E JUMPI PUSH1 0x0 DUP1 REVERT JUMPDEST POP PUSH2 0x267 PUSH2 0x8C6 JUMP JUMPDEST PUSH1 0x40 MLOAD PUSH2 0x274 SWAP2 SWAP1 PUSH2 0xEE1 JUMP JUMPDEST PUSH1 0x40 MLOAD DUP1 SWAP2 SUB SWAP1 RETURN JUMPDEST CALLVALUE DUP1 ISZERO PUSH2 0x289 JUMPI PUSH1 0x0 DUP1 REVERT JUMPDEST POP PUSH2 0x292 PUSH2 0x918 JUMP JUMPDEST PUSH1 0x40 MLOAD PUSH2 0x29F SWAP2 SWAP1 PUSH2 0xD95 JUMP JUMPDEST PUSH1 0x40 MLOAD DUP1 SWAP2 SUB SWAP1 RETURN JUMPDEST CALLVALUE DUP1 ISZERO PUSH2 0x2B4 JUMPI PUSH1 0x0 DUP1 REVERT JUMPDEST POP PUSH2 0x2BD PUSH2 0x92F JUMP JUMPDEST PUSH1 0x40 MLOAD PUSH2 0x2CA SWAP2 SWAP1 PUSH2 0xFE1 JUMP JUMPDEST PUSH1 0x40 MLOAD DUP1 SWAP2 SUB SWAP1 RETURN JUMPDEST PUSH1 0x0 DUP1 SLOAD PUSH2 0x2E0 SWAP1 PUSH2 0x1032 JUMP JUMPDEST DUP1 PUSH1 0x1F ADD PUSH1 0x20 DUP1 SWAP2 DIV MUL PUSH1 0x20 ADD PUSH1 0x40 MLOAD SWAP1 DUP2 ADD PUSH1 0x40 MSTORE DUP1 SWAP3 SWAP2 SWAP1 DUP2 DUP2 MSTORE PUSH1 0x20 ADD DUP3 DUP1 SLOAD PUSH2 0x30C SWAP1 PUSH2 0x1032 JUMP JUMPDEST DUP1 ISZERO PUSH2 0x359 JUMPI DUP1 PUSH1 0x1F LT PUSH2 0x32E JUMPI PUSH2 0x100 DUP1 DUP4 SLOAD DIV MUL DUP4 MSTORE SWAP2 PUSH1 0x20 ADD SWAP2 PUSH2 0x359 JUMP JUMPDEST DUP3 ADD SWAP2 SWAP1 PUSH1 0x0 MSTORE PUSH1 0x20 PUSH1 0x0 KECCAK256 SWAP1 JUMPDEST DUP2 SLOAD DUP2 MSTORE SWAP1 PUSH1 0x1 ADD SWAP1 PUSH1 0x20 ADD DUP1 DUP4 GT PUSH2 0x33C JUMPI DUP3 SWAP1 SUB PUSH1 0x1F AND DUP3 ADD SWAP2 JUMPDEST POP POP POP POP POP DUP2 JUMP JUMPDEST PUSH1 0x0 SELFBALANCE SWAP1 POP SWAP1 JUMP JUMPDEST PUSH1 0x60 PUSH1 0x0 DUP1 SLOAD PUSH2 0x378 SWAP1 PUSH2 0x1032 JUMP JUMPDEST DUP1 PUSH1 0x1F ADD PUSH1 0x20 DUP1 SWAP2 DIV MUL PUSH1 0x20 ADD PUSH1 0x40 MLOAD SWAP1 DUP2 ADD PUSH1 0x40 MSTORE DUP1 SWAP3 SWAP2 SWAP1 DUP2 DUP2 MSTORE PUSH1 0x20 ADD DUP3 DUP1 SLOAD PUSH2 0x3A4 SWAP1 PUSH2 0x1032 JUMP JUMPDEST DUP1 ISZERO PUSH2 0x3F1 JUMPI DUP1 PUSH1 0x1F LT PUSH2 0x3C6 JUMPI PUSH2 0x100 DUP1 DUP4 SLOAD DIV MUL DUP4 MSTORE SWAP2 PUSH1 0x20 ADD SWAP2 PUSH2 0x3F1 JUMP JUMPDEST DUP3 ADD SWAP2 SWAP1 PUSH1 0x0 MSTORE PUSH1 0x20 PUSH1 0x0 KECCAK256 SWAP1 JUMPDEST DUP2 SLOAD DUP2 MSTORE SWAP1 PUSH1 0x1 ADD SWAP1 PUSH1 0x20 ADD DUP1 DUP4 GT PUSH2 0x3D4 JUMPI DUP3 SWAP1 SUB PUSH1 0x1F AND DUP3 ADD SWAP2 JUMPDEST POP POP POP POP POP SWAP1 POP SWAP1 JUMP JUMPDEST PUSH1 0x0 DUP1 PUSH1 0x0 PUSH2 0x409 DUP5 PUSH2 0x6C5 JUMP JUMPDEST SWAP2 POP SWAP2 POP PUSH1 0x0 PUSH20 0xFFFFFFFFFFFFFFFFFFFFFFFFFFFFFFFFFFFFFFFF AND DUP3 PUSH1 0x0 ADD MLOAD PUSH20 0xFFFFFFFFFFFFFFFFFFFFFFFFFFFFFFFFFFFFFFFF AND EQ PUSH2 0x480 JUMPI PUSH1 0x40 MLOAD PUSH32 0x8C379A000000000000000000000000000000000000000000000000000000000 DUP2 MSTORE PUSH1 0x4 ADD PUSH2 0x477 SWAP1 PUSH2 0x10D5 JUMP JUMPDEST PUSH1 0x40 MLOAD DUP1 SWAP2 SUB SWAP1 REVERT JUMPDEST PUSH1 0x0 DUP1 PUSH1 0x2 PUSH1 0x0 SWAP1 SLOAD SWAP1 PUSH2 0x100 EXP SWAP1 DIV PUSH20 0xFFFFFFFFFFFFFFFFFFFFFFFFFFFFFFFFFFFFFFFF AND PUSH20 0xFFFFFFFFFFFFFFFFFFFFFFFFFFFFFFFFFFFFFFFF AND ADDRESS PUSH1 0x3 SLOAD PUSH1 0x40 MLOAD PUSH1 0x24 ADD PUSH2 0x4D1 SWAP3 SWAP2 SWAP1 PUSH2 0x10F5 JUMP JUMPDEST PUSH1 0x40 MLOAD PUSH1 0x20 DUP2 DUP4 SUB SUB DUP2 MSTORE SWAP1 PUSH1 0x40 MSTORE PUSH32 0x9713685600000000000000000000000000000000000000000000000000000000 PUSH28 0xFFFFFFFFFFFFFFFFFFFFFFFFFFFFFFFFFFFFFFFFFFFFFFFFFFFFFFFF NOT AND PUSH1 0x20 DUP3 ADD DUP1 MLOAD PUSH28 0xFFFFFFFFFFFFFFFFFFFFFFFFFFFFFFFFFFFFFFFFFFFFFFFFFFFFFFFF DUP4 DUP2 DUP4 AND OR DUP4 MSTORE POP POP POP POP PUSH1 0x40 MLOAD PUSH2 0x55B SWAP2 SWAP1 PUSH2 0x115A JUMP JUMPDEST PUSH1 0x0 PUSH1 0x40 MLOAD DUP1 DUP4 SUB DUP2 PUSH1 0x0 DUP7 GAS CALL SWAP2 POP POP RETURNDATASIZE DUP1 PUSH1 0x0 DUP2 EQ PUSH2 0x598 JUMPI PUSH1 0x40 MLOAD SWAP2 POP PUSH1 0x1F NOT PUSH1 0x3F RETURNDATASIZE ADD AND DUP3 ADD PUSH1 0x40 MSTORE RETURNDATASIZE DUP3 MSTORE RETURNDATASIZE PUSH1 0x0 PUSH1 0x20 DUP5 ADD RETURNDATACOPY PUSH2 0x59D JUMP JUMPDEST PUSH1 0x60 SWAP2 POP JUMPDEST POP SWAP2 POP SWAP2 POP DUP2 PUSH2 0x5E2 JUMPI PUSH1 0x40 MLOAD PUSH32 0x8C379A000000000000000000000000000000000000000000000000000000000 DUP2 MSTORE PUSH1 0x4 ADD PUSH2 0x5D9 SWAP1 PUSH2 0x11E3 JUMP JUMPDEST PUSH1 0x40 MLOAD DUP1 SWAP2 SUB SWAP1 REVERT JUMPDEST PUSH1 0x0 DUP2 DUP1 PUSH1 0x20 ADD SWAP1 MLOAD DUP2 ADD SWAP1 PUSH2 0x5F8 SWAP2 SWAP1 PUSH2 0x122F JUMP JUMPDEST SWAP1 POP PUSH2 0x604 DUP2 DUP7 PUSH2 0x9EE JUMP JUMPDEST POP PUSH1 0x0 PUSH2 0x611 DUP3 DUP8 PUSH2 0xA77 JUMP JUMPDEST SWAP1 POP PUSH1 0x4 DUP6 DUP2 SLOAD DUP2 LT PUSH2 0x627 JUMPI PUSH2 0x626 PUSH2 0x125C JUMP JUMPDEST JUMPDEST SWAP1 PUSH1 0x0 MSTORE PUSH1 0x20 PUSH1 0x0 KECCAK256 SWAP1 PUSH1 0x2 MUL ADD PUSH1 0x0 DUP1 DUP3 ADD PUSH1 0x0 PUSH2 0x100 EXP DUP2 SLOAD SWAP1 PUSH20 0xFFFFFFFFFFFFFFFFFFFFFFFFFFFFFFFFFFFFFFFF MUL NOT AND SWAP1 SSTORE PUSH1 0x1 DUP3 ADD PUSH1 0x0 SWAP1 SSTORE POP POP PUSH32 0x62CA24E8CD93EA5FD2D278EFEEE93EEFC315827AF5F69967B4008E41F315EBF9 DUP7 PUSH1 0x0 ADD MLOAD PUSH1 0x3 SLOAD PUSH1 0x2 PUSH1 0x14 SWAP1 SLOAD SWAP1 PUSH2 0x100 EXP SWAP1 DIV PUSH1 0xFF AND PUSH1 0x40 MLOAD PUSH2 0x6AF SWAP4 SWAP3 SWAP2 SWAP1 PUSH2 0x128B JUMP JUMPDEST PUSH1 0x40 MLOAD DUP1 SWAP2 SUB SWAP1 LOG1 DUP1 SWAP7 POP POP POP POP POP POP POP SWAP2 SWAP1 POP JUMP JUMPDEST PUSH2 0x6CD PUSH2 0xBD4 JUMP JUMPDEST PUSH1 0x0 DUP1 PUSH1 0x0 SWAP1 POP JUMPDEST PUSH1 0x4 DUP1 SLOAD SWAP1 POP DUP2 LT ISZERO PUSH2 0x808 JUMPI DUP4 PUSH20 0xFFFFFFFFFFFFFFFFFFFFFFFFFFFFFFFFFFFFFFFF AND PUSH1 0x4 DUP3 DUP2 SLOAD DUP2 LT PUSH2 0x70D JUMPI PUSH2 0x70C PUSH2 0x125C JUMP JUMPDEST JUMPDEST SWAP1 PUSH1 0x0 MSTORE PUSH1 0x20 PUSH1 0x0 KECCAK256 SWAP1 PUSH1 0x2 MUL ADD PUSH1 0x0 ADD PUSH1 0x0 SWAP1 SLOAD SWAP1 PUSH2 0x100 EXP SWAP1 DIV PUSH20 0xFFFFFFFFFFFFFFFFFFFFFFFFFFFFFFFFFFFFFFFF AND PUSH20 0xFFFFFFFFFFFFFFFFFFFFFFFFFFFFFFFFFFFFFFFF AND SUB PUSH2 0x7F5 JUMPI PUSH1 0x4 DUP2 DUP2 SLOAD DUP2 LT PUSH2 0x76E JUMPI PUSH2 0x76D PUSH2 0x125C JUMP JUMPDEST JUMPDEST SWAP1 PUSH1 0x0 MSTORE PUSH1 0x20 PUSH1 0x0 KECCAK256 SWAP1 PUSH1 0x2 MUL ADD DUP2 DUP2 PUSH1 0x40 MLOAD DUP1 PUSH1 0x40 ADD PUSH1 0x40 MSTORE SWAP1 DUP2 PUSH1 0x0 DUP3 ADD PUSH1 0x0 SWAP1 SLOAD SWAP1 PUSH2 0x100 EXP SWAP1 DIV PUSH20 0xFFFFFFFFFFFFFFFFFFFFFFFFFFFFFFFFFFFFFFFF AND PUSH20 0xFFFFFFFFFFFFFFFFFFFFFFFFFFFFFFFFFFFFFFFF AND PUSH20 0xFFFFFFFFFFFFFFFFFFFFFFFFFFFFFFFFFFFFFFFF AND DUP2 MSTORE PUSH1 0x20 ADD PUSH1 0x1 DUP3 ADD SLOAD DUP2 MSTORE POP POP SWAP2 POP SWAP3 POP SWAP3 POP POP PUSH2 0x83D JUMP JUMPDEST DUP1 DUP1 PUSH2 0x800 SWAP1 PUSH2 0x12F1 JUMP JUMPDEST SWAP2 POP POP PUSH2 0x6D5 JUMP JUMPDEST POP PUSH1 0x40 MLOAD DUP1 PUSH1 0x40 ADD PUSH1 0x40 MSTORE DUP1 PUSH1 0x0 PUSH20 0xFFFFFFFFFFFFFFFFFFFFFFFFFFFFFFFFFFFFFFFF AND DUP2 MSTORE PUSH1 0x20 ADD PUSH1 0x0 DUP2 MSTORE POP PUSH1 0x0 SWAP2 POP SWAP2 POP JUMPDEST SWAP2 POP SWAP2 JUMP JUMPDEST PUSH1 0x0 PUSH1 0x3 SLOAD SWAP1 POP SWAP1 JUMP JUMPDEST PUSH1 0x0 PUSH1 0x2 PUSH1 0x0 SWAP1 SLOAD SWAP1 PUSH2 0x100 EXP SWAP1 DIV PUSH20 0xFFFFFFFFFFFFFFFFFFFFFFFFFFFFFFFFFFFFFFFF AND SWAP1 POP SWAP1 JUMP JUMPDEST PUSH1 0x0 PUSH1 0x1 PUSH1 0x0 SWAP1 SLOAD SWAP1 PUSH2 0x100 EXP SWAP1 DIV PUSH20 0xFFFFFFFFFFFFFFFFFFFFFFFFFFFFFFFFFFFFFFFF AND SWAP1 POP SWAP1 JUMP JUMPDEST PUSH1 0x2 PUSH1 0x0 SWAP1 SLOAD SWAP1 PUSH2 0x100 EXP SWAP1 DIV PUSH20 0xFFFFFFFFFFFFFFFFFFFFFFFFFFFFFFFFFFFFFFFF AND DUP2 JUMP JUMPDEST PUSH1 0x60 PUSH2 0x8D0 PUSH2 0xBC7 JUMP JUMPDEST DUP1 DUP1 PUSH1 0x1F ADD PUSH1 0x20 DUP1 SWAP2 DIV MUL PUSH1 0x20 ADD PUSH1 0x40 MLOAD SWAP1 DUP2 ADD PUSH1 0x40 MSTORE DUP1 SWAP4 SWAP3 SWAP2 SWAP1 DUP2 DUP2 MSTORE PUSH1 0x20 ADD DUP4 DUP4 DUP1 DUP3 DUP5 CALLDATACOPY PUSH1 0x0 DUP2 DUP5 ADD MSTORE PUSH1 0x1F NOT PUSH1 0x1F DUP3 ADD AND SWAP1 POP DUP1 DUP4 ADD SWAP3 POP POP POP POP POP POP POP SWAP1 POP SWAP1 JUMP JUMPDEST PUSH1 0x0 PUSH1 0x2 PUSH1 0x14 SWAP1 SLOAD SWAP1 PUSH2 0x100 EXP SWAP1 DIV PUSH1 0xFF AND SWAP1 POP SWAP1 JUMP JUMPDEST PUSH1 0x60 PUSH1 0x4 DUP1 SLOAD DUP1 PUSH1 0x20 MUL PUSH1 0x20 ADD PUSH1 0x40 MLOAD SWAP1 DUP2 ADD PUSH1 0x40 MSTORE DUP1 SWAP3 SWAP2 SWAP1 DUP2 DUP2 MSTORE PUSH1 0x20 ADD PUSH1 0x0 SWAP1 JUMPDEST DUP3 DUP3 LT ISZERO PUSH2 0x9E5 JUMPI DUP4 DUP3 SWAP1 PUSH1 0x0 MSTORE PUSH1 0x20 PUSH1 0x0 KECCAK256 SWAP1 PUSH1 0x2 MUL ADD PUSH1 0x40 MLOAD DUP1 PUSH1 0x40 ADD PUSH1 0x40 MSTORE SWAP1 DUP2 PUSH1 0x0 DUP3 ADD PUSH1 0x0 SWAP1 SLOAD SWAP1 PUSH2 0x100 EXP SWAP1 DIV PUSH20 0xFFFFFFFFFFFFFFFFFFFFFFFFFFFFFFFFFFFFFFFF AND PUSH20 0xFFFFFFFFFFFFFFFFFFFFFFFFFFFFFFFFFFFFFFFF AND PUSH20 0xFFFFFFFFFFFFFFFFFFFFFFFFFFFFFFFFFFFFFFFF AND DUP2 MSTORE PUSH1 0x20 ADD PUSH1 0x1 DUP3 ADD SLOAD DUP2 MSTORE POP POP DUP2 MSTORE PUSH1 0x20 ADD SWAP1 PUSH1 0x1 ADD SWAP1 PUSH2 0x953 JUMP JUMPDEST POP POP POP POP SWAP1 POP SWAP1 JUMP JUMPDEST PUSH1 0x0 DUP1 DUP4 PUSH20 0xFFFFFFFFFFFFFFFFFFFFFFFFFFFFFFFFFFFFFFFF AND PUSH2 0x8FC DUP5 PUSH1 0x20 ADD MLOAD SWAP1 DUP2 ISZERO MUL SWAP1 PUSH1 0x40 MLOAD PUSH1 0x0 PUSH1 0x40 MLOAD DUP1 DUP4 SUB DUP2 DUP6 DUP9 DUP9 CALL SWAP4 POP POP POP POP SWAP1 POP DUP1 PUSH2 0xA6C JUMPI PUSH1 0x40 MLOAD PUSH32 0x8C379A000000000000000000000000000000000000000000000000000000000 DUP2 MSTORE PUSH1 0x4 ADD PUSH2 0xA63 SWAP1 PUSH2 0x13AB JUMP JUMPDEST PUSH1 0x40 MLOAD DUP1 SWAP2 SUB SWAP1 REVERT JUMPDEST PUSH1 0x1 SWAP2 POP POP SWAP3 SWAP2 POP POP JUMP JUMPDEST PUSH1 0x0 DUP1 DUP4 PUSH20 0xFFFFFFFFFFFFFFFFFFFFFFFFFFFFFFFFFFFFFFFF AND DUP4 PUSH1 0x0 ADD MLOAD DUP5 PUSH1 0x20 ADD MLOAD PUSH1 0x40 MLOAD PUSH1 0x24 ADD PUSH2 0xAAC SWAP3 SWAP2 SWAP1 PUSH2 0x10F5 JUMP JUMPDEST PUSH1 0x40 MLOAD PUSH1 0x20 DUP2 DUP4 SUB SUB DUP2 MSTORE SWAP1 PUSH1 0x40 MSTORE PUSH32 0xD301719300000000000000000000000000000000000000000000000000000000 PUSH28 0xFFFFFFFFFFFFFFFFFFFFFFFFFFFFFFFFFFFFFFFFFFFFFFFFFFFFFFFF NOT AND PUSH1 0x20 DUP3 ADD DUP1 MLOAD PUSH28 0xFFFFFFFFFFFFFFFFFFFFFFFFFFFFFFFFFFFFFFFFFFFFFFFFFFFFFFFF DUP4 DUP2 DUP4 AND OR DUP4 MSTORE POP POP POP POP PUSH1 0x40 MLOAD PUSH2 0xB36 SWAP2 SWAP1 PUSH2 0x115A JUMP JUMPDEST PUSH1 0x0 PUSH1 0x40 MLOAD DUP1 DUP4 SUB DUP2 PUSH1 0x0 DUP7 GAS CALL SWAP2 POP POP RETURNDATASIZE DUP1 PUSH1 0x0 DUP2 EQ PUSH2 0xB73 JUMPI PUSH1 0x40 MLOAD SWAP2 POP PUSH1 0x1F NOT PUSH1 0x3F RETURNDATASIZE ADD AND DUP3 ADD PUSH1 0x40 MSTORE RETURNDATASIZE DUP3 MSTORE RETURNDATASIZE PUSH1 0x0 PUSH1 0x20 DUP5 ADD RETURNDATACOPY PUSH2 0xB78 JUMP JUMPDEST PUSH1 0x60 SWAP2 POP JUMPDEST POP POP SWAP1 POP DUP1 PUSH2 0xBBC JUMPI PUSH1 0x40 MLOAD PUSH32 0x8C379A000000000000000000000000000000000000000000000000000000000 DUP2 MSTORE PUSH1 0x4 ADD PUSH2 0xBB3 SWAP1 PUSH2 0x143D JUMP JUMPDEST PUSH1 0x40 MLOAD DUP1 SWAP2 SUB SWAP1 REVERT JUMPDEST PUSH1 0x1 SWAP2 POP POP SWAP3 SWAP2 POP POP JUMP JUMPDEST CALLDATASIZE PUSH1 0x0 DUP1 CALLDATASIZE SWAP2 POP SWAP2 POP SWAP1 SWAP2 JUMP JUMPDEST PUSH1 0x40 MLOAD DUP1 PUSH1 0x40 ADD PUSH1 0x40 MSTORE DUP1 PUSH1 0x0 PUSH20 0xFFFFFFFFFFFFFFFFFFFFFFFFFFFFFFFFFFFFFFFF AND DUP2 MSTORE PUSH1 0x20 ADD PUSH1 0x0 DUP2 MSTORE POP SWAP1 JUMP JUMPDEST PUSH1 0x0 DUP2 MLOAD SWAP1 POP SWAP2 SWAP1 POP JUMP JUMPDEST PUSH1 0x0 DUP3 DUP3 MSTORE PUSH1 0x20 DUP3 ADD SWAP1 POP SWAP3 SWAP2 POP POP JUMP JUMPDEST PUSH1 0x0 JUMPDEST DUP4 DUP2 LT ISZERO PUSH2 0xC3E JUMPI DUP1 DUP3 ADD MLOAD DUP2 DUP5 ADD MSTORE PUSH1 0x20 DUP2 ADD SWAP1 POP PUSH2 0xC23 JUMP JUMPDEST PUSH1 0x0 DUP5 DUP5 ADD MSTORE POP POP POP POP JUMP JUMPDEST PUSH1 0x0 PUSH1 0x1F NOT PUSH1 0x1F DUP4 ADD AND SWAP1 POP SWAP2 SWAP1 POP JUMP JUMPDEST PUSH1 0x0 PUSH2 0xC66 DUP3 PUSH2 0xC04 JUMP JUMPDEST PUSH2 0xC70 DUP2 DUP6 PUSH2 0xC0F JUMP JUMPDEST SWAP4 POP PUSH2 0xC80 DUP2 DUP6 PUSH1 0x20 DUP7 ADD PUSH2 0xC20 JUMP JUMPDEST PUSH2 0xC89 DUP2 PUSH2 0xC4A JUMP JUMPDEST DUP5 ADD SWAP2 POP POP SWAP3 SWAP2 POP POP JUMP JUMPDEST PUSH1 0x0 PUSH1 0x20 DUP3 ADD SWAP1 POP DUP2 DUP2 SUB PUSH1 0x0 DUP4 ADD MSTORE PUSH2 0xCAE DUP2 DUP5 PUSH2 0xC5B JUMP JUMPDEST SWAP1 POP SWAP3 SWAP2 POP POP JUMP JUMPDEST PUSH1 0x0 DUP2 SWAP1 POP SWAP2 SWAP1 POP JUMP JUMPDEST PUSH2 0xCC9 DUP2 PUSH2 0xCB6 JUMP JUMPDEST DUP3 MSTORE POP POP JUMP JUMPDEST PUSH1 0x0 PUSH1 0x20 DUP3 ADD SWAP1 POP PUSH2 0xCE4 PUSH1 0x0 DUP4 ADD DUP5 PUSH2 0xCC0 JUMP JUMPDEST SWAP3 SWAP2 POP POP JUMP JUMPDEST PUSH1 0x0 DUP1 REVERT JUMPDEST PUSH1 0x0 PUSH20 0xFFFFFFFFFFFFFFFFFFFFFFFFFFFFFFFFFFFFFFFF DUP3 AND SWAP1 POP SWAP2 SWAP1 POP JUMP JUMPDEST PUSH1 0x0 PUSH2 0xD1A DUP3 PUSH2 0xCEF JUMP JUMPDEST SWAP1 POP SWAP2 SWAP1 POP JUMP JUMPDEST PUSH2 0xD2A DUP2 PUSH2 0xD0F JUMP JUMPDEST DUP2 EQ PUSH2 0xD35 JUMPI PUSH1 0x0 DUP1 REVERT JUMPDEST POP JUMP JUMPDEST PUSH1 0x0 DUP2 CALLDATALOAD SWAP1 POP PUSH2 0xD47 DUP2 PUSH2 0xD21 JUMP JUMPDEST SWAP3 SWAP2 POP POP JUMP JUMPDEST PUSH1 0x0 PUSH1 0x20 DUP3 DUP5 SUB SLT ISZERO PUSH2 0xD63 JUMPI PUSH2 0xD62 PUSH2 0xCEA JUMP JUMPDEST JUMPDEST PUSH1 0x0 PUSH2 0xD71 DUP5 DUP3 DUP6 ADD PUSH2 0xD38 JUMP JUMPDEST SWAP2 POP POP SWAP3 SWAP2 POP POP JUMP JUMPDEST PUSH1 0x0 DUP2 ISZERO ISZERO SWAP1 POP SWAP2 SWAP1 POP JUMP JUMPDEST PUSH2 0xD8F DUP2 PUSH2 0xD7A JUMP JUMPDEST DUP3 MSTORE POP POP JUMP JUMPDEST PUSH1 0x0 PUSH1 0x20 DUP3 ADD SWAP1 POP PUSH2 0xDAA PUSH1 0x0 DUP4 ADD DUP5 PUSH2 0xD86 JUMP JUMPDEST SWAP3 SWAP2 POP POP JUMP JUMPDEST PUSH2 0xDB9 DUP2 PUSH2 0xD0F JUMP JUMPDEST DUP3 MSTORE POP POP JUMP JUMPDEST PUSH2 0xDC8 DUP2 PUSH2 0xCB6 JUMP JUMPDEST DUP3 MSTORE POP POP JUMP JUMPDEST PUSH1 0x40 DUP3 ADD PUSH1 0x0 DUP3 ADD MLOAD PUSH2 0xDE4 PUSH1 0x0 DUP6 ADD DUP3 PUSH2 0xDB0 JUMP JUMPDEST POP PUSH1 0x20 DUP3 ADD MLOAD PUSH2 0xDF7 PUSH1 0x20 DUP6 ADD DUP3 PUSH2 0xDBF JUMP JUMPDEST POP POP POP POP JUMP JUMPDEST PUSH1 0x0 PUSH1 0x60 DUP3 ADD SWAP1 POP PUSH2 0xE12 PUSH1 0x0 DUP4 ADD DUP6 PUSH2 0xDCE JUMP JUMPDEST PUSH2 0xE1F PUSH1 0x40 DUP4 ADD DUP5 PUSH2 0xCC0 JUMP JUMPDEST SWAP4 SWAP3 POP POP POP JUMP JUMPDEST PUSH2 0xE2F DUP2 PUSH2 0xD0F JUMP JUMPDEST DUP3 MSTORE POP POP JUMP JUMPDEST PUSH1 0x0 PUSH1 0x20 DUP3 ADD SWAP1 POP PUSH2 0xE4A PUSH1 0x0 DUP4 ADD DUP5 PUSH2 0xE26 JUMP JUMPDEST SWAP3 SWAP2 POP POP JUMP JUMPDEST PUSH1 0x0 PUSH2 0xE5B DUP3 PUSH2 0xCEF JUMP JUMPDEST SWAP1 POP SWAP2 SWAP1 POP JUMP JUMPDEST PUSH2 0xE6B DUP2 PUSH2 0xE50 JUMP JUMPDEST DUP3 MSTORE POP POP JUMP JUMPDEST PUSH1 0x0 PUSH1 0x20 DUP3 ADD SWAP1 POP PUSH2 0xE86 PUSH1 0x0 DUP4 ADD DUP5 PUSH2 0xE62 JUMP JUMPDEST SWAP3 SWAP2 POP POP JUMP JUMPDEST PUSH1 0x0 DUP2 MLOAD SWAP1 POP SWAP2 SWAP1 POP JUMP JUMPDEST PUSH1 0x0 DUP3 DUP3 MSTORE PUSH1 0x20 DUP3 ADD SWAP1 POP SWAP3 SWAP2 POP POP JUMP JUMPDEST PUSH1 0x0 PUSH2 0xEB3 DUP3 PUSH2 0xE8C JUMP JUMPDEST PUSH2 0xEBD DUP2 DUP6 PUSH2 0xE97 JUMP JUMPDEST SWAP4 POP PUSH2 0xECD DUP2 DUP6 PUSH1 0x20 DUP7 ADD PUSH2 0xC20 JUMP JUMPDEST PUSH2 0xED6 DUP2 PUSH2 0xC4A JUMP JUMPDEST DUP5 ADD SWAP2 POP POP SWAP3 SWAP2 POP POP JUMP JUMPDEST PUSH1 0x0 PUSH1 0x20 DUP3 ADD SWAP1 POP DUP2 DUP2 SUB PUSH1 0x0 DUP4 ADD MSTORE PUSH2 0xEFB DUP2 DUP5 PUSH2 0xEA8 JUMP JUMPDEST SWAP1 POP SWAP3 SWAP2 POP POP JUMP JUMPDEST PUSH1 0x0 DUP2 MLOAD SWAP1 POP SWAP2 SWAP1 POP JUMP JUMPDEST PUSH1 0x0 DUP3 DUP3 MSTORE PUSH1 0x20 DUP3 ADD SWAP1 POP SWAP3 SWAP2 POP POP JUMP JUMPDEST PUSH1 0x0 DUP2 SWAP1 POP PUSH1 0x20 DUP3 ADD SWAP1 POP SWAP2 SWAP1 POP JUMP JUMPDEST PUSH1 0x40 DUP3 ADD PUSH1 0x0 DUP3 ADD MLOAD PUSH2 0xF45 PUSH1 0x0 DUP6 ADD DUP3 PUSH2 0xDB0 JUMP JUMPDEST POP PUSH1 0x20 DUP3 ADD MLOAD PUSH2 0xF58 PUSH1 0x20 DUP6 ADD DUP3 PUSH2 0xDBF JUMP JUMPDEST POP POP POP POP JUMP JUMPDEST PUSH1 0x0 PUSH2 0xF6A DUP4 DUP4 PUSH2 0xF2F JUMP JUMPDEST PUSH1 0x40 DUP4 ADD SWAP1 POP SWAP3 SWAP2 POP POP JUMP JUMPDEST PUSH1 0x0 PUSH1 0x20 DUP3 ADD SWAP1 POP SWAP2 SWAP1 POP JUMP JUMPDEST PUSH1 0x0 PUSH2 0xF8E DUP3 PUSH2 0xF03 JUMP JUMPDEST PUSH2 0xF98 DUP2 DUP6 PUSH2 0xF0E JUMP JUMPDEST SWAP4 POP PUSH2 0xFA3 DUP4 PUSH2 0xF1F JUMP JUMPDEST DUP1 PUSH1 0x0 JUMPDEST DUP4 DUP2 LT ISZERO PUSH2 0xFD4 JUMPI DUP2 MLOAD PUSH2 0xFBB DUP9 DUP3 PUSH2 0xF5E JUMP JUMPDEST SWAP8 POP PUSH2 0xFC6 DUP4 PUSH2 0xF76 JUMP JUMPDEST SWAP3 POP POP PUSH1 0x1 DUP2 ADD SWAP1 POP PUSH2 0xFA7 JUMP JUMPDEST POP DUP6 SWAP4 POP POP POP POP SWAP3 SWAP2 POP POP JUMP JUMPDEST PUSH1 0x0 PUSH1 0x20 DUP3 ADD SWAP1 POP DUP2 DUP2 SUB PUSH1 0x0 DUP4 ADD MSTORE PUSH2 0xFFB DUP2 DUP5 PUSH2 0xF83 JUMP JUMPDEST SWAP1 POP SWAP3 SWAP2 POP POP JUMP JUMPDEST PUSH32 0x4E487B7100000000000000000000000000000000000000000000000000000000 PUSH1 0x0 MSTORE PUSH1 0x22 PUSH1 0x4 MSTORE PUSH1 0x24 PUSH1 0x0 REVERT JUMPDEST PUSH1 0x0 PUSH1 0x2 DUP3 DIV SWAP1 POP PUSH1 0x1 DUP3 AND DUP1 PUSH2 0x104A JUMPI PUSH1 0x7F DUP3 AND SWAP2 POP JUMPDEST PUSH1 0x20 DUP3 LT DUP2 SUB PUSH2 0x105D JUMPI PUSH2 0x105C PUSH2 0x1003 JUMP JUMPDEST JUMPDEST POP SWAP2 SWAP1 POP JUMP JUMPDEST PUSH32 0x44796E616D6963506F6F6C204572726F723A20496E76616C6964206164647265 PUSH1 0x0 DUP3 ADD MSTORE PUSH32 0x7373205573657220646964206E6F74206465706F73697465642E000000000000 PUSH1 0x20 DUP3 ADD MSTORE POP JUMP JUMPDEST PUSH1 0x0 PUSH2 0x10BF PUSH1 0x3A DUP4 PUSH2 0xC0F JUMP JUMPDEST SWAP2 POP PUSH2 0x10CA DUP3 PUSH2 0x1063 JUMP JUMPDEST PUSH1 0x40 DUP3 ADD SWAP1 POP SWAP2 SWAP1 POP JUMP JUMPDEST PUSH1 0x0 PUSH1 0x20 DUP3 ADD SWAP1 POP DUP2 DUP2 SUB PUSH1 0x0 DUP4 ADD MSTORE PUSH2 0x10EE DUP2 PUSH2 0x10B2 JUMP JUMPDEST SWAP1 POP SWAP2 SWAP1 POP JUMP JUMPDEST PUSH1 0x0 PUSH1 0x40 DUP3 ADD SWAP1 POP PUSH2 0x110A PUSH1 0x0 DUP4 ADD DUP6 PUSH2 0xE26 JUMP JUMPDEST PUSH2 0x1117 PUSH1 0x20 DUP4 ADD DUP5 PUSH2 0xCC0 JUMP JUMPDEST SWAP4 SWAP3 POP POP POP JUMP JUMPDEST PUSH1 0x0 DUP2 SWAP1 POP SWAP3 SWAP2 POP POP JUMP JUMPDEST PUSH1 0x0 PUSH2 0x1134 DUP3 PUSH2 0xE8C JUMP JUMPDEST PUSH2 0x113E DUP2 DUP6 PUSH2 0x111E JUMP JUMPDEST SWAP4 POP PUSH2 0x114E DUP2 DUP6 PUSH1 0x20 DUP7 ADD PUSH2 0xC20 JUMP JUMPDEST DUP1 DUP5 ADD SWAP2 POP POP SWAP3 SWAP2 POP POP JUMP JUMPDEST PUSH1 0x0 PUSH2 0x1166 DUP3 DUP5 PUSH2 0x1129 JUMP JUMPDEST SWAP2 POP DUP2 SWAP1 POP SWAP3 SWAP2 POP POP JUMP JUMPDEST PUSH32 0x44796E616D6963506F6F6C204572726F723A204661696C656420746F20676574 PUSH1 0x0 DUP3 ADD MSTORE PUSH32 0x204F6666656E736520506F6F6C20616464726573732E00000000000000000000 PUSH1 0x20 DUP3 ADD MSTORE POP JUMP JUMPDEST PUSH1 0x0 PUSH2 0x11CD PUSH1 0x36 DUP4 PUSH2 0xC0F JUMP JUMPDEST SWAP2 POP PUSH2 0x11D8 DUP3 PUSH2 0x1171 JUMP JUMPDEST PUSH1 0x40 DUP3 ADD SWAP1 POP SWAP2 SWAP1 POP JUMP JUMPDEST PUSH1 0x0 PUSH1 0x20 DUP3 ADD SWAP1 POP DUP2 DUP2 SUB PUSH1 0x0 DUP4 ADD MSTORE PUSH2 0x11FC DUP2 PUSH2 0x11C0 JUMP JUMPDEST SWAP1 POP SWAP2 SWAP1 POP JUMP JUMPDEST PUSH2 0x120C DUP2 PUSH2 0xE50 JUMP JUMPDEST DUP2 EQ PUSH2 0x1217 JUMPI PUSH1 0x0 DUP1 REVERT JUMPDEST POP JUMP JUMPDEST PUSH1 0x0 DUP2 MLOAD SWAP1 POP PUSH2 0x1229 DUP2 PUSH2 0x1203 JUMP JUMPDEST SWAP3 SWAP2 POP POP JUMP JUMPDEST PUSH1 0x0 PUSH1 0x20 DUP3 DUP5 SUB SLT ISZERO PUSH2 0x1245 JUMPI PUSH2 0x1244 PUSH2 0xCEA JUMP JUMPDEST JUMPDEST PUSH1 0x0 PUSH2 0x1253 DUP5 DUP3 DUP6 ADD PUSH2 0x121A JUMP JUMPDEST SWAP2 POP POP SWAP3 SWAP2 POP POP JUMP JUMPDEST PUSH32 0x4E487B7100000000000000000000000000000000000000000000000000000000 PUSH1 0x0 MSTORE PUSH1 0x32 PUSH1 0x4 MSTORE PUSH1 0x24 PUSH1 0x0 REVERT JUMPDEST PUSH1 0x0 PUSH1 0x60 DUP3 ADD SWAP1 POP PUSH2 0x12A0 PUSH1 0x0 DUP4 ADD DUP7 PUSH2 0xE26 JUMP JUMPDEST PUSH2 0x12AD PUSH1 0x20 DUP4 ADD DUP6 PUSH2 0xCC0 JUMP JUMPDEST PUSH2 0x12BA PUSH1 0x40 DUP4 ADD DUP5 PUSH2 0xD86 JUMP JUMPDEST SWAP5 SWAP4 POP POP POP POP JUMP JUMPDEST PUSH32 0x4E487B7100000000000000000000000000000000000000000000000000000000 PUSH1 0x0 MSTORE PUSH1 0x11 PUSH1 0x4 MSTORE PUSH1 0x24 PUSH1 0x0 REVERT JUMPDEST PUSH1 0x0 PUSH2 0x12FC DUP3 PUSH2 0xCB6 JUMP JUMPDEST SWAP2 POP PUSH32 0xFFFFFFFFFFFFFFFFFFFFFFFFFFFFFFFFFFFFFFFFFFFFFFFFFFFFFFFFFFFFFFFF DUP3 SUB PUSH2 0x132E JUMPI PUSH2 0x132D PUSH2 0x12C2 JUMP JUMPDEST JUMPDEST PUSH1 0x1 DUP3 ADD SWAP1 POP SWAP2 SWAP1 POP JUMP JUMPDEST PUSH32 0x44796E616D6963506F6F6C204572726F723A204661696C656420746F206D6F76 PUSH1 0x0 DUP3 ADD MSTORE PUSH32 0x652055736572204465706F7369742E0000000000000000000000000000000000 PUSH1 0x20 DUP3 ADD MSTORE POP JUMP JUMPDEST PUSH1 0x0 PUSH2 0x1395 PUSH1 0x2F DUP4 PUSH2 0xC0F JUMP JUMPDEST SWAP2 POP PUSH2 0x13A0 DUP3 PUSH2 0x1339 JUMP JUMPDEST PUSH1 0x40 DUP3 ADD SWAP1 POP SWAP2 SWAP1 POP JUMP JUMPDEST PUSH1 0x0 PUSH1 0x20 DUP3 ADD SWAP1 POP DUP2 DUP2 SUB PUSH1 0x0 DUP4 ADD MSTORE PUSH2 0x13C4 DUP2 PUSH2 0x1388 JUMP JUMPDEST SWAP1 POP SWAP2 SWAP1 POP JUMP JUMPDEST PUSH32 0x44796E616D6963506F6F6C204572726F723A204661696C656420746F2073746F PUSH1 0x0 DUP3 ADD MSTORE PUSH32 0x7265205573657220746F206F6666656E7365506F6F3B2E000000000000000000 PUSH1 0x20 DUP3 ADD MSTORE POP JUMP JUMPDEST PUSH1 0x0 PUSH2 0x1427 PUSH1 0x37 DUP4 PUSH2 0xC0F JUMP JUMPDEST SWAP2 POP PUSH2 0x1432 DUP3 PUSH2 0x13CB JUMP JUMPDEST PUSH1 0x40 DUP3 ADD SWAP1 POP SWAP2 SWAP1 POP JUMP JUMPDEST PUSH1 0x0 PUSH1 0x20 DUP3 ADD SWAP1 POP DUP2 DUP2 SUB PUSH1 0x0 DUP4 ADD MSTORE PUSH2 0x1456 DUP2 PUSH2 0x141A JUMP JUMPDEST SWAP1 POP SWAP2 SWAP1 POP JUMP INVALID LOG2 PUSH5 0x6970667358 0x22 SLT KECCAK256 PUSH0 SWAP5 0xA9 SELFBALANCE SWAP9 RETURNDATACOPY NUMBER 0x2E 0xC7 0xA5 PUSH17 0x3DBCC3A7969966F52CC7A3ECF0C6611D7C 0xBF DUP12 PUSH23 0x6E64736F6C634300081400330000000000000000000000 "},"methodIdentifiers":{"changePool(address)":"4339bc30","factory()":"c45a0155","getAllUsers()":"e2842d79","getBalance()":"12065fe0","getFactory()":"88cc58e4","getForm()":"d92ca747","getIndex()":"81045ead","getMsgData()":"c8e7ca2e","getName()":"17d7de7c","getOwner()":"893d20e8","getUser(address)":"6f77926b","name()":"06fdde03"}}}}}