{
  "_format": "hh-sol-artifact-1",
  "contractName": "DynamicPool",
  "sourceName": "contracts/dynamicpool/DynamicPool.sol",
  "abi": [
    {
      "inputs": [
        {
          "internalType": "string",
          "name": "_name",
          "type": "string"
        },
        {
          "internalType": "address",
          "name": "_owner",
          "type": "address"
        },
        {
          "internalType": "address payable",
          "name": "_factory",
          "type": "address"
        },
        {
          "internalType": "bool",
          "name": "_form",
          "type": "bool"
        },
        {
          "internalType": "uint256",
          "name": "_idx",
          "type": "uint256"
        }
      ],
      "stateMutability": "nonpayable",
      "type": "constructor"
    },
    {
      "anonymous": false,
      "inputs": [
        {
          "indexed": false,
          "internalType": "address",
          "name": "User",
          "type": "address"
        },
        {
          "indexed": false,
          "internalType": "uint256",
          "name": "Idx",
          "type": "uint256"
        },
        {
          "indexed": false,
          "internalType": "bool",
          "name": "Form",
          "type": "bool"
        }
      ],
      "name": "PoolTransfered",
      "type": "event"
    },
    {
      "anonymous": false,
      "inputs": [
        {
          "indexed": false,
          "internalType": "address",
          "name": "Pool",
          "type": "address"
        },
        {
          "indexed": false,
          "internalType": "address",
          "name": "User",
          "type": "address"
        },
        {
          "indexed": false,
          "internalType": "uint256",
          "name": "Deposit",
          "type": "uint256"
        }
      ],
      "name": "UserAdded",
      "type": "event"
    },
    {
      "inputs": [
        {
          "internalType": "address",
          "name": "_user",
          "type": "address"
        }
      ],
      "name": "changePool",
      "outputs": [
        {
          "internalType": "bool",
          "name": "",
          "type": "bool"
        }
      ],
      "stateMutability": "payable",
      "type": "function"
    },
    {
      "inputs": [],
      "name": "factory",
      "outputs": [
        {
          "internalType": "address payable",
          "name": "",
          "type": "address"
        }
      ],
      "stateMutability": "view",
      "type": "function"
    },
    {
      "inputs": [],
      "name": "getAllUsers",
      "outputs": [
        {
          "components": [
            {
              "internalType": "address",
              "name": "addr",
              "type": "address"
            },
            {
              "internalType": "uint256",
              "name": "deposit",
              "type": "uint256"
            }
          ],
          "internalType": "struct Struct.User[]",
          "name": "",
          "type": "tuple[]"
        }
      ],
      "stateMutability": "view",
      "type": "function"
    },
    {
      "inputs": [],
      "name": "getBalance",
      "outputs": [
        {
          "internalType": "uint256",
          "name": "",
          "type": "uint256"
        }
      ],
      "stateMutability": "view",
      "type": "function"
    },
    {
      "inputs": [],
      "name": "getFactory",
      "outputs": [
        {
          "internalType": "address",
          "name": "",
          "type": "address"
        }
      ],
      "stateMutability": "view",
      "type": "function"
    },
    {
      "inputs": [],
      "name": "getForm",
      "outputs": [
        {
          "internalType": "bool",
          "name": "",
          "type": "bool"
        }
      ],
      "stateMutability": "view",
      "type": "function"
    },
    {
      "inputs": [],
      "name": "getIndex",
      "outputs": [
        {
          "internalType": "uint256",
          "name": "",
          "type": "uint256"
        }
      ],
      "stateMutability": "view",
      "type": "function"
    },
    {
      "inputs": [],
      "name": "getMsgData",
      "outputs": [
        {
          "internalType": "bytes",
          "name": "",
          "type": "bytes"
        }
      ],
      "stateMutability": "view",
      "type": "function"
    },
    {
      "inputs": [],
      "name": "getName",
      "outputs": [
        {
          "internalType": "string",
          "name": "",
          "type": "string"
        }
      ],
      "stateMutability": "view",
      "type": "function"
    },
    {
      "inputs": [],
      "name": "getOwner",
      "outputs": [
        {
          "internalType": "address",
          "name": "",
          "type": "address"
        }
      ],
      "stateMutability": "view",
      "type": "function"
    },
    {
      "inputs": [
        {
          "internalType": "address",
          "name": "_user",
          "type": "address"
        }
      ],
      "name": "getUser",
      "outputs": [
        {
          "components": [
            {
              "internalType": "address",
              "name": "addr",
              "type": "address"
            },
            {
              "internalType": "uint256",
              "name": "deposit",
              "type": "uint256"
            }
          ],
          "internalType": "struct Struct.User",
          "name": "",
          "type": "tuple"
        },
        {
          "internalType": "uint256",
          "name": "",
          "type": "uint256"
        }
      ],
      "stateMutability": "view",
      "type": "function"
    },
    {
      "inputs": [],
      "name": "name",
      "outputs": [
        {
          "internalType": "string",
          "name": "",
          "type": "string"
        }
      ],
      "stateMutability": "view",
      "type": "function"
    },
    {
      "stateMutability": "payable",
      "type": "receive"
    }
  ],
  "bytecode": "0x60806040523480156200001157600080fd5b5060405162001c1e38038062001c1e8339818101604052810190620000379190620003ac565b846000908162000048919062000694565b5083600160006101000a81548173ffffffffffffffffffffffffffffffffffffffff021916908373ffffffffffffffffffffffffffffffffffffffff16021790555082600260006101000a81548173ffffffffffffffffffffffffffffffffffffffff021916908373ffffffffffffffffffffffffffffffffffffffff16021790555081600260146101000a81548160ff0219169083151502179055508060038190555050505050506200077b565b6000604051905090565b600080fd5b600080fd5b600080fd5b600080fd5b6000601f19601f8301169050919050565b7f4e487b7100000000000000000000000000000000000000000000000000000000600052604160045260246000fd5b620001608262000115565b810181811067ffffffffffffffff8211171562000182576200018162000126565b5b80604052505050565b600062000197620000f7565b9050620001a5828262000155565b919050565b600067ffffffffffffffff821115620001c857620001c762000126565b5b620001d38262000115565b9050602081019050919050565b60005b8381101562000200578082015181840152602081019050620001e3565b60008484015250505050565b6000620002236200021d84620001aa565b6200018b565b90508281526020810184848401111562000242576200024162000110565b5b6200024f848285620001e0565b509392505050565b600082601f8301126200026f576200026e6200010b565b5b8151620002818482602086016200020c565b91505092915050565b600073ffffffffffffffffffffffffffffffffffffffff82169050919050565b6000620002b7826200028a565b9050919050565b620002c981620002aa565b8114620002d557600080fd5b50565b600081519050620002e981620002be565b92915050565b6000620002fc826200028a565b9050919050565b6200030e81620002ef565b81146200031a57600080fd5b50565b6000815190506200032e8162000303565b92915050565b60008115159050919050565b6200034b8162000334565b81146200035757600080fd5b50565b6000815190506200036b8162000340565b92915050565b6000819050919050565b620003868162000371565b81146200039257600080fd5b50565b600081519050620003a6816200037b565b92915050565b600080600080600060a08688031215620003cb57620003ca62000101565b5b600086015167ffffffffffffffff811115620003ec57620003eb62000106565b5b620003fa8882890162000257565b95505060206200040d88828901620002d8565b945050604062000420888289016200031d565b935050606062000433888289016200035a565b9250506080620004468882890162000395565b9150509295509295909350565b600081519050919050565b7f4e487b7100000000000000000000000000000000000000000000000000000000600052602260045260246000fd5b60006002820490506001821680620004a657607f821691505b602082108103620004bc57620004bb6200045e565b5b50919050565b60008190508160005260206000209050919050565b60006020601f8301049050919050565b600082821b905092915050565b600060088302620005267fffffffffffffffffffffffffffffffffffffffffffffffffffffffffffffffff82620004e7565b620005328683620004e7565b95508019841693508086168417925050509392505050565b6000819050919050565b6000620005756200056f620005698462000371565b6200054a565b62000371565b9050919050565b6000819050919050565b620005918362000554565b620005a9620005a0826200057c565b848454620004f4565b825550505050565b600090565b620005c0620005b1565b620005cd81848462000586565b505050565b5b81811015620005f557620005e9600082620005b6565b600181019050620005d3565b5050565b601f82111562000644576200060e81620004c2565b6200061984620004d7565b8101602085101562000629578190505b620006416200063885620004d7565b830182620005d2565b50505b505050565b600082821c905092915050565b6000620006696000198460080262000649565b1980831691505092915050565b600062000684838362000656565b9150826002028217905092915050565b6200069f8262000453565b67ffffffffffffffff811115620006bb57620006ba62000126565b5b620006c782546200048d565b620006d4828285620005f9565b600060209050601f8311600181146200070c5760008415620006f7578287015190505b62000703858262000676565b86555062000773565b601f1984166200071c86620004c2565b60005b8281101562000746578489015182556001820191506020850194506020810190506200071f565b8683101562000766578489015162000762601f89168262000656565b8355505b6001600288020188555050505b505050505050565b611493806200078b6000396000f3fe6080604052600436106100ab5760003560e01c806388cc58e41161006457806388cc58e4146101d1578063893d20e8146101fc578063c45a015514610227578063c8e7ca2e14610252578063d92ca7471461027d578063e2842d79146102a8576100b2565b806306fdde03146100b757806312065fe0146100e257806317d7de7c1461010d5780634339bc30146101385780636f77926b1461016857806381045ead146101a6576100b2565b366100b257005b600080fd5b3480156100c357600080fd5b506100cc6102d3565b6040516100d99190610c94565b60405180910390f35b3480156100ee57600080fd5b506100f7610361565b6040516101049190610ccf565b60405180910390f35b34801561011957600080fd5b50610122610369565b60405161012f9190610c94565b60405180910390f35b610152600480360381019061014d9190610d4d565b6103fb565b60405161015f9190610d95565b60405180910390f35b34801561017457600080fd5b5061018f600480360381019061018a9190610d4d565b6106c5565b60405161019d929190610dfd565b60405180910390f35b3480156101b257600080fd5b506101bb610842565b6040516101c89190610ccf565b60405180910390f35b3480156101dd57600080fd5b506101e661084c565b6040516101f39190610e35565b60405180910390f35b34801561020857600080fd5b50610211610876565b60405161021e9190610e35565b60405180910390f35b34801561023357600080fd5b5061023c6108a0565b6040516102499190610e71565b60405180910390f35b34801561025e57600080fd5b506102676108c6565b6040516102749190610ee1565b60405180910390f35b34801561028957600080fd5b50610292610918565b60405161029f9190610d95565b60405180910390f35b3480156102b457600080fd5b506102bd61092f565b6040516102ca9190610fe1565b60405180910390f35b600080546102e090611032565b80601f016020809104026020016040519081016040528092919081815260200182805461030c90611032565b80156103595780601f1061032e57610100808354040283529160200191610359565b820191906000526020600020905b81548152906001019060200180831161033c57829003601f168201915b505050505081565b600047905090565b60606000805461037890611032565b80601f01602080910402602001604051908101604052809291908181526020018280546103a490611032565b80156103f15780601f106103c6576101008083540402835291602001916103f1565b820191906000526020600020905b8154815290600101906020018083116103d457829003601f168201915b5050505050905090565b6000806000610409846106c5565b91509150600073ffffffffffffffffffffffffffffffffffffffff16826000015173ffffffffffffffffffffffffffffffffffffffff1614610480576040517f08c379a0000000000000000000000000000000000000000000000000000000008152600401610477906110d5565b60405180910390fd5b600080600260009054906101000a900473ffffffffffffffffffffffffffffffffffffffff1673ffffffffffffffffffffffffffffffffffffffff16306003546040516024016104d19291906110f5565b6040516020818303038152906040527f97136856000000000000000000000000000000000000000000000000000000007bffffffffffffffffffffffffffffffffffffffffffffffffffffffff19166020820180517bffffffffffffffffffffffffffffffffffffffffffffffffffffffff838183161783525050505060405161055b919061115a565b6000604051808303816000865af19150503d8060008114610598576040519150601f19603f3d011682016040523d82523d6000602084013e61059d565b606091505b5091509150816105e2576040517f08c379a00000000000000000000000000000000000000000000000000000000081526004016105d9906111e3565b60405180910390fd5b6000818060200190518101906105f8919061122f565b905061060481866109ee565b5060006106118287610a77565b9050600485815481106106275761062661125c565b5b9060005260206000209060020201600080820160006101000a81549073ffffffffffffffffffffffffffffffffffffffff0219169055600182016000905550507f62ca24e8cd93ea5fd2d278efeee93eefc315827af5f69967b4008e41f315ebf98660000151600354600260149054906101000a900460ff166040516106af9392919061128b565b60405180910390a1809650505050505050919050565b6106cd610bd4565b600080600090505b600480549050811015610808578373ffffffffffffffffffffffffffffffffffffffff166004828154811061070d5761070c61125c565b5b906000526020600020906002020160000160009054906101000a900473ffffffffffffffffffffffffffffffffffffffff1673ffffffffffffffffffffffffffffffffffffffff16036107f5576004818154811061076e5761076d61125c565b5b906000526020600020906002020181816040518060400160405290816000820160009054906101000a900473ffffffffffffffffffffffffffffffffffffffff1673ffffffffffffffffffffffffffffffffffffffff1673ffffffffffffffffffffffffffffffffffffffff1681526020016001820154815250509150925092505061083d565b8080610800906112f1565b9150506106d5565b506040518060400160405280600073ffffffffffffffffffffffffffffffffffffffff16815260200160008152506000915091505b915091565b6000600354905090565b6000600260009054906101000a900473ffffffffffffffffffffffffffffffffffffffff16905090565b6000600160009054906101000a900473ffffffffffffffffffffffffffffffffffffffff16905090565b600260009054906101000a900473ffffffffffffffffffffffffffffffffffffffff1681565b60606108d0610bc7565b8080601f016020809104026020016040519081016040528093929190818152602001838380828437600081840152601f19601f82011690508083019250505050505050905090565b6000600260149054906101000a900460ff16905090565b60606004805480602002602001604051908101604052809291908181526020016000905b828210156109e557838290600052602060002090600202016040518060400160405290816000820160009054906101000a900473ffffffffffffffffffffffffffffffffffffffff1673ffffffffffffffffffffffffffffffffffffffff1673ffffffffffffffffffffffffffffffffffffffff16815260200160018201548152505081526020019060010190610953565b50505050905090565b6000808373ffffffffffffffffffffffffffffffffffffffff166108fc84602001519081150290604051600060405180830381858888f19350505050905080610a6c576040517f08c379a0000000000000000000000000000000000000000000000000000000008152600401610a63906113ab565b60405180910390fd5b600191505092915050565b6000808373ffffffffffffffffffffffffffffffffffffffff1683600001518460200151604051602401610aac9291906110f5565b6040516020818303038152906040527fd3017193000000000000000000000000000000000000000000000000000000007bffffffffffffffffffffffffffffffffffffffffffffffffffffffff19166020820180517bffffffffffffffffffffffffffffffffffffffffffffffffffffffff8381831617835250505050604051610b36919061115a565b6000604051808303816000865af19150503d8060008114610b73576040519150601f19603f3d011682016040523d82523d6000602084013e610b78565b606091505b5050905080610bbc576040517f08c379a0000000000000000000000000000000000000000000000000000000008152600401610bb39061143d565b60405180910390fd5b600191505092915050565b3660008036915091509091565b6040518060400160405280600073ffffffffffffffffffffffffffffffffffffffff168152602001600081525090565b600081519050919050565b600082825260208201905092915050565b60005b83811015610c3e578082015181840152602081019050610c23565b60008484015250505050565b6000601f19601f8301169050919050565b6000610c6682610c04565b610c708185610c0f565b9350610c80818560208601610c20565b610c8981610c4a565b840191505092915050565b60006020820190508181036000830152610cae8184610c5b565b905092915050565b6000819050919050565b610cc981610cb6565b82525050565b6000602082019050610ce46000830184610cc0565b92915050565b600080fd5b600073ffffffffffffffffffffffffffffffffffffffff82169050919050565b6000610d1a82610cef565b9050919050565b610d2a81610d0f565b8114610d3557600080fd5b50565b600081359050610d4781610d21565b92915050565b600060208284031215610d6357610d62610cea565b5b6000610d7184828501610d38565b91505092915050565b60008115159050919050565b610d8f81610d7a565b82525050565b6000602082019050610daa6000830184610d86565b92915050565b610db981610d0f565b82525050565b610dc881610cb6565b82525050565b604082016000820151610de46000850182610db0565b506020820151610df76020850182610dbf565b50505050565b6000606082019050610e126000830185610dce565b610e1f6040830184610cc0565b9392505050565b610e2f81610d0f565b82525050565b6000602082019050610e4a6000830184610e26565b92915050565b6000610e5b82610cef565b9050919050565b610e6b81610e50565b82525050565b6000602082019050610e866000830184610e62565b92915050565b600081519050919050565b600082825260208201905092915050565b6000610eb382610e8c565b610ebd8185610e97565b9350610ecd818560208601610c20565b610ed681610c4a565b840191505092915050565b60006020820190508181036000830152610efb8184610ea8565b905092915050565b600081519050919050565b600082825260208201905092915050565b6000819050602082019050919050565b604082016000820151610f456000850182610db0565b506020820151610f586020850182610dbf565b50505050565b6000610f6a8383610f2f565b60408301905092915050565b6000602082019050919050565b6000610f8e82610f03565b610f988185610f0e565b9350610fa383610f1f565b8060005b83811015610fd4578151610fbb8882610f5e565b9750610fc683610f76565b925050600181019050610fa7565b5085935050505092915050565b60006020820190508181036000830152610ffb8184610f83565b905092915050565b7f4e487b7100000000000000000000000000000000000000000000000000000000600052602260045260246000fd5b6000600282049050600182168061104a57607f821691505b60208210810361105d5761105c611003565b5b50919050565b7f44796e616d6963506f6f6c204572726f723a20496e76616c696420616464726560008201527f7373205573657220646964206e6f74206465706f73697465642e000000000000602082015250565b60006110bf603a83610c0f565b91506110ca82611063565b604082019050919050565b600060208201905081810360008301526110ee816110b2565b9050919050565b600060408201905061110a6000830185610e26565b6111176020830184610cc0565b9392505050565b600081905092915050565b600061113482610e8c565b61113e818561111e565b935061114e818560208601610c20565b80840191505092915050565b60006111668284611129565b915081905092915050565b7f44796e616d6963506f6f6c204572726f723a204661696c656420746f2067657460008201527f204f6666656e736520506f6f6c20616464726573732e00000000000000000000602082015250565b60006111cd603683610c0f565b91506111d882611171565b604082019050919050565b600060208201905081810360008301526111fc816111c0565b9050919050565b61120c81610e50565b811461121757600080fd5b50565b60008151905061122981611203565b92915050565b60006020828403121561124557611244610cea565b5b60006112538482850161121a565b91505092915050565b7f4e487b7100000000000000000000000000000000000000000000000000000000600052603260045260246000fd5b60006060820190506112a06000830186610e26565b6112ad6020830185610cc0565b6112ba6040830184610d86565b949350505050565b7f4e487b7100000000000000000000000000000000000000000000000000000000600052601160045260246000fd5b60006112fc82610cb6565b91507fffffffffffffffffffffffffffffffffffffffffffffffffffffffffffffffff820361132e5761132d6112c2565b5b600182019050919050565b7f44796e616d6963506f6f6c204572726f723a204661696c656420746f206d6f7660008201527f652055736572204465706f7369742e0000000000000000000000000000000000602082015250565b6000611395602f83610c0f565b91506113a082611339565b604082019050919050565b600060208201905081810360008301526113c481611388565b9050919050565b7f44796e616d6963506f6f6c204572726f723a204661696c656420746f2073746f60008201527f7265205573657220746f206f6666656e7365506f6f3b2e000000000000000000602082015250565b6000611427603783610c0f565b9150611432826113cb565b604082019050919050565b600060208201905081810360008301526114568161141a565b905091905056fea26469706673582212205f94a947983e432ec7a5703dbcc3a7969966f52cc7a3ecf0c6611d7cbf8b766e64736f6c63430008140033",
  "linkReferences": {},
  "deployedLinkReferences": {}
}