{
  "_format": "hh-sol-artifact-1",
  "contractName": "DynamicPool",
  "sourceName": "contracts/dynamicpool/DynamicPool.sol",
  "abi": [
    {
      "inputs": [
        {
          "internalType": "string",
          "name": "_name",
          "type": "string"
        },
        {
          "internalType": "address payable",
          "name": "_owner",
          "type": "address"
        },
        {
          "internalType": "address",
          "name": "_factory",
          "type": "address"
        },
        {
          "internalType": "bool",
          "name": "_form",
          "type": "bool"
        },
        {
          "internalType": "uint256",
          "name": "_idx",
          "type": "uint256"
        }
      ],
      "stateMutability": "nonpayable",
      "type": "constructor"
    },
    {
      "anonymous": false,
      "inputs": [
        {
          "indexed": false,
          "internalType": "address",
          "name": "From",
          "type": "address"
        },
        {
          "indexed": false,
          "internalType": "address",
          "name": "User",
          "type": "address"
        },
        {
          "indexed": false,
          "internalType": "uint256",
          "name": "Deposit",
          "type": "uint256"
        },
        {
          "indexed": false,
          "internalType": "bool",
          "name": "Result",
          "type": "bool"
        }
      ],
      "name": "DepositMoved",
      "type": "event"
    },
    {
      "anonymous": false,
      "inputs": [
        {
          "indexed": false,
          "internalType": "address",
          "name": "Pool",
          "type": "address"
        },
        {
          "indexed": false,
          "internalType": "address",
          "name": "User",
          "type": "address"
        },
        {
          "indexed": false,
          "internalType": "uint256",
          "name": "Deposit",
          "type": "uint256"
        },
        {
          "indexed": false,
          "internalType": "bool",
          "name": "Result",
          "type": "bool"
        }
      ],
      "name": "DepositReturned",
      "type": "event"
    },
    {
      "anonymous": false,
      "inputs": [
        {
          "indexed": false,
          "internalType": "address",
          "name": "Pool",
          "type": "address"
        },
        {
          "indexed": false,
          "internalType": "address",
          "name": "User",
          "type": "address"
        },
        {
          "indexed": false,
          "internalType": "uint256",
          "name": "Deposit",
          "type": "uint256"
        }
      ],
      "name": "UserAdded",
      "type": "event"
    },
    {
      "anonymous": false,
      "inputs": [
        {
          "indexed": false,
          "internalType": "address",
          "name": "Pool",
          "type": "address"
        },
        {
          "indexed": false,
          "internalType": "address",
          "name": "User",
          "type": "address"
        }
      ],
      "name": "UserDeleted",
      "type": "event"
    },
    {
      "inputs": [
        {
          "internalType": "address",
          "name": "_user",
          "type": "address"
        },
        {
          "internalType": "uint256",
          "name": "_deposit",
          "type": "uint256"
        }
      ],
      "name": "addUser",
      "outputs": [
        {
          "components": [
            {
              "internalType": "address",
              "name": "addr",
              "type": "address"
            },
            {
              "internalType": "uint256",
              "name": "deposit",
              "type": "uint256"
            }
          ],
          "internalType": "struct Struct.User",
          "name": "",
          "type": "tuple"
        }
      ],
      "stateMutability": "nonpayable",
      "type": "function"
    },
    {
      "inputs": [
        {
          "internalType": "address",
          "name": "_user",
          "type": "address"
        }
      ],
      "name": "deleteUser",
      "outputs": [
        {
          "components": [
            {
              "internalType": "address",
              "name": "addr",
              "type": "address"
            },
            {
              "internalType": "uint256",
              "name": "deposit",
              "type": "uint256"
            }
          ],
          "internalType": "struct Struct.User[]",
          "name": "",
          "type": "tuple[]"
        }
      ],
      "stateMutability": "nonpayable",
      "type": "function"
    },
    {
      "inputs": [],
      "name": "factory",
      "outputs": [
        {
          "internalType": "address",
          "name": "",
          "type": "address"
        }
      ],
      "stateMutability": "view",
      "type": "function"
    },
    {
      "inputs": [],
      "name": "getAllUsers",
      "outputs": [
        {
          "components": [
            {
              "internalType": "address",
              "name": "addr",
              "type": "address"
            },
            {
              "internalType": "uint256",
              "name": "deposit",
              "type": "uint256"
            }
          ],
          "internalType": "struct Struct.User[]",
          "name": "",
          "type": "tuple[]"
        }
      ],
      "stateMutability": "view",
      "type": "function"
    },
    {
      "inputs": [],
      "name": "getBalance",
      "outputs": [
        {
          "internalType": "uint256",
          "name": "",
          "type": "uint256"
        }
      ],
      "stateMutability": "view",
      "type": "function"
    },
    {
      "inputs": [],
      "name": "getFactory",
      "outputs": [
        {
          "internalType": "address",
          "name": "",
          "type": "address"
        }
      ],
      "stateMutability": "view",
      "type": "function"
    },
    {
      "inputs": [],
      "name": "getForm",
      "outputs": [
        {
          "internalType": "bool",
          "name": "",
          "type": "bool"
        }
      ],
      "stateMutability": "view",
      "type": "function"
    },
    {
      "inputs": [],
      "name": "getIndex",
      "outputs": [
        {
          "internalType": "uint256",
          "name": "",
          "type": "uint256"
        }
      ],
      "stateMutability": "view",
      "type": "function"
    },
    {
      "inputs": [],
      "name": "getName",
      "outputs": [
        {
          "internalType": "string",
          "name": "",
          "type": "string"
        }
      ],
      "stateMutability": "view",
      "type": "function"
    },
    {
      "inputs": [],
      "name": "getOwner",
      "outputs": [
        {
          "internalType": "address",
          "name": "",
          "type": "address"
        }
      ],
      "stateMutability": "view",
      "type": "function"
    },
    {
      "inputs": [
        {
          "internalType": "address",
          "name": "_user",
          "type": "address"
        }
      ],
      "name": "getUser",
      "outputs": [
        {
          "components": [
            {
              "internalType": "address",
              "name": "addr",
              "type": "address"
            },
            {
              "internalType": "uint256",
              "name": "deposit",
              "type": "uint256"
            }
          ],
          "internalType": "struct Struct.User",
          "name": "",
          "type": "tuple"
        },
        {
          "internalType": "uint256",
          "name": "",
          "type": "uint256"
        }
      ],
      "stateMutability": "view",
      "type": "function"
    },
    {
      "inputs": [],
      "name": "name",
      "outputs": [
        {
          "internalType": "string",
          "name": "",
          "type": "string"
        }
      ],
      "stateMutability": "view",
      "type": "function"
    },
    {
      "inputs": [],
      "name": "owner",
      "outputs": [
        {
          "internalType": "address payable",
          "name": "",
          "type": "address"
        }
      ],
      "stateMutability": "view",
      "type": "function"
    },
    {
      "inputs": [
        {
          "internalType": "address",
          "name": "_user",
          "type": "address"
        },
        {
          "internalType": "uint256",
          "name": "_deposit",
          "type": "uint256"
        }
      ],
      "name": "paybackDeposit",
      "outputs": [
        {
          "internalType": "bool",
          "name": "",
          "type": "bool"
        }
      ],
      "stateMutability": "payable",
      "type": "function"
    },
    {
      "inputs": [],
      "name": "requestReversePool",
      "outputs": [
        {
          "internalType": "address",
          "name": "",
          "type": "address"
        }
      ],
      "stateMutability": "nonpayable",
      "type": "function"
    },
    {
      "inputs": [
        {
          "internalType": "address",
          "name": "_user",
          "type": "address"
        },
        {
          "internalType": "uint256",
          "name": "_deposit",
          "type": "uint256"
        }
      ],
      "name": "withdrawDeposit",
      "outputs": [
        {
          "internalType": "bool",
          "name": "",
          "type": "bool"
        }
      ],
      "stateMutability": "payable",
      "type": "function"
    },
    {
      "stateMutability": "payable",
      "type": "receive"
    }
  ],
  "bytecode": "0x60806040523480156200001157600080fd5b506040516200256c3803806200256c8339818101604052810190620000379190620003ac565b846000908162000048919062000694565b5083600160006101000a81548173ffffffffffffffffffffffffffffffffffffffff021916908373ffffffffffffffffffffffffffffffffffffffff16021790555082600260006101000a81548173ffffffffffffffffffffffffffffffffffffffff021916908373ffffffffffffffffffffffffffffffffffffffff16021790555081600260146101000a81548160ff0219169083151502179055508060038190555050505050506200077b565b6000604051905090565b600080fd5b600080fd5b600080fd5b600080fd5b6000601f19601f8301169050919050565b7f4e487b7100000000000000000000000000000000000000000000000000000000600052604160045260246000fd5b620001608262000115565b810181811067ffffffffffffffff8211171562000182576200018162000126565b5b80604052505050565b600062000197620000f7565b9050620001a5828262000155565b919050565b600067ffffffffffffffff821115620001c857620001c762000126565b5b620001d38262000115565b9050602081019050919050565b60005b8381101562000200578082015181840152602081019050620001e3565b60008484015250505050565b6000620002236200021d84620001aa565b6200018b565b90508281526020810184848401111562000242576200024162000110565b5b6200024f848285620001e0565b509392505050565b600082601f8301126200026f576200026e6200010b565b5b8151620002818482602086016200020c565b91505092915050565b600073ffffffffffffffffffffffffffffffffffffffff82169050919050565b6000620002b7826200028a565b9050919050565b620002c981620002aa565b8114620002d557600080fd5b50565b600081519050620002e981620002be565b92915050565b6000620002fc826200028a565b9050919050565b6200030e81620002ef565b81146200031a57600080fd5b50565b6000815190506200032e8162000303565b92915050565b60008115159050919050565b6200034b8162000334565b81146200035757600080fd5b50565b6000815190506200036b8162000340565b92915050565b6000819050919050565b620003868162000371565b81146200039257600080fd5b50565b600081519050620003a6816200037b565b92915050565b600080600080600060a08688031215620003cb57620003ca62000101565b5b600086015167ffffffffffffffff811115620003ec57620003eb62000106565b5b620003fa8882890162000257565b95505060206200040d88828901620002d8565b945050604062000420888289016200031d565b935050606062000433888289016200035a565b9250506080620004468882890162000395565b9150509295509295909350565b600081519050919050565b7f4e487b7100000000000000000000000000000000000000000000000000000000600052602260045260246000fd5b60006002820490506001821680620004a657607f821691505b602082108103620004bc57620004bb6200045e565b5b50919050565b60008190508160005260206000209050919050565b60006020601f8301049050919050565b600082821b905092915050565b600060088302620005267fffffffffffffffffffffffffffffffffffffffffffffffffffffffffffffffff82620004e7565b620005328683620004e7565b95508019841693508086168417925050509392505050565b6000819050919050565b6000620005756200056f620005698462000371565b6200054a565b62000371565b9050919050565b6000819050919050565b620005918362000554565b620005a9620005a0826200057c565b848454620004f4565b825550505050565b600090565b620005c0620005b1565b620005cd81848462000586565b505050565b5b81811015620005f557620005e9600082620005b6565b600181019050620005d3565b5050565b601f82111562000644576200060e81620004c2565b6200061984620004d7565b8101602085101562000629578190505b620006416200063885620004d7565b830182620005d2565b50505b505050565b600082821c905092915050565b6000620006696000198460080262000649565b1980831691505092915050565b600062000684838362000656565b9150826002028217905092915050565b6200069f8262000453565b67ffffffffffffffff811115620006bb57620006ba62000126565b5b620006c782546200048d565b620006d4828285620005f9565b600060209050601f8311600181146200070c5760008415620006f7578287015190505b62000703858262000676565b86555062000773565b601f1984166200071c86620004c2565b60005b8281101562000746578489015182556001820191506020850194506020810190506200071f565b8683101562000766578489015162000762601f89168262000656565b8355505b6001600288020188555050505b505050505050565b611de1806200078b6000396000f3fe6080604052600436106100f75760003560e01c8063893d20e81161008a578063d301719311610059578063d301719314610331578063d92ca7471461036e578063e2842d7914610399578063e992ecc8146103c4576100fe565b8063893d20e8146102855780638da5cb5b146102b0578063c3dfe035146102db578063c45a015514610306576100fe565b80636f77926b116100c65780636f77926b146101c15780637f07bfdc146101ff57806381045ead1461022f57806388cc58e41461025a576100fe565b806306fdde031461010357806312065fe01461012e57806317d7de7c146101595780635c60f22614610184576100fe565b366100fe57005b600080fd5b34801561010f57600080fd5b506101186103f4565b6040516101259190611525565b60405180910390f35b34801561013a57600080fd5b50610143610482565b6040516101509190611560565b60405180910390f35b34801561016557600080fd5b5061016e61048a565b60405161017b9190611525565b60405180910390f35b34801561019057600080fd5b506101ab60048036038101906101a691906115de565b61051c565b6040516101b89190611707565b60405180910390f35b3480156101cd57600080fd5b506101e860048036038101906101e391906115de565b6107e1565b6040516101f6929190611758565b60405180910390f35b610219600480360381019061021491906117ad565b61095e565b6040516102269190611808565b60405180910390f35b34801561023b57600080fd5b50610244610bbf565b6040516102519190611560565b60405180910390f35b34801561026657600080fd5b5061026f610bc9565b60405161027c9190611832565b60405180910390f35b34801561029157600080fd5b5061029a610bf3565b6040516102a79190611832565b60405180910390f35b3480156102bc57600080fd5b506102c5610c1d565b6040516102d2919061186e565b60405180910390f35b3480156102e757600080fd5b506102f0610c43565b6040516102fd9190611832565b60405180910390f35b34801561031257600080fd5b5061031b610e6c565b6040516103289190611832565b60405180910390f35b34801561033d57600080fd5b50610358600480360381019061035391906117ad565b610e92565b6040516103659190611889565b60405180910390f35b34801561037a57600080fd5b506103836110cf565b6040516103909190611808565b60405180910390f35b3480156103a557600080fd5b506103ae6110e6565b6040516103bb9190611707565b60405180910390f35b6103de60048036038101906103d991906117ad565b6111a5565b6040516103eb9190611808565b60405180910390f35b60008054610401906118d3565b80601f016020809104026020016040519081016040528092919081815260200182805461042d906118d3565b801561047a5780601f1061044f5761010080835404028352916020019161047a565b820191906000526020600020905b81548152906001019060200180831161045d57829003601f168201915b505050505081565b600047905090565b606060008054610499906118d3565b80601f01602080910402602001604051908101604052809291908181526020018280546104c5906118d3565b80156105125780601f106104e757610100808354040283529160200191610512565b820191906000526020600020905b8154815290600101906020018083116104f557829003601f168201915b5050505050905090565b60606000600160009054906101000a900473ffffffffffffffffffffffffffffffffffffffff1673ffffffffffffffffffffffffffffffffffffffff1661056161145d565b73ffffffffffffffffffffffffffffffffffffffff1614610583576000610586565b60015b9050806105c8576040517f08c379a00000000000000000000000000000000000000000000000000000000081526004016105bf90611976565b60405180910390fd5b6000806105d4856107e1565b91509150600073ffffffffffffffffffffffffffffffffffffffff16826000015173ffffffffffffffffffffffffffffffffffffffff161461064b576040517f08c379a000000000000000000000000000000000000000000000000000000000815260040161064290611a08565b60405180910390fd5b6000826020015111610692576040517f08c379a000000000000000000000000000000000000000000000000000000000815260040161068990611a9a565b60405180910390fd5b600481815481106106a6576106a5611aba565b5b9060005260206000209060020201600080820160006101000a81549073ffffffffffffffffffffffffffffffffffffffff0219169055600182016000905550507ff93da4a59a937584eca9a6054bd8731085e1c7d8af5209783a2abb15e102a98f3086604051610717929190611ae9565b60405180910390a16004805480602002602001604051908101604052809291908181526020016000905b828210156107d357838290600052602060002090600202016040518060400160405290816000820160009054906101000a900473ffffffffffffffffffffffffffffffffffffffff1673ffffffffffffffffffffffffffffffffffffffff1673ffffffffffffffffffffffffffffffffffffffff16815260200160018201548152505081526020019060010190610741565b505050509350505050919050565b6107e9611465565b600080600090505b600480549050811015610924578373ffffffffffffffffffffffffffffffffffffffff166004828154811061082957610828611aba565b5b906000526020600020906002020160000160009054906101000a900473ffffffffffffffffffffffffffffffffffffffff1673ffffffffffffffffffffffffffffffffffffffff1603610911576004818154811061088a57610889611aba565b5b906000526020600020906002020181816040518060400160405290816000820160009054906101000a900473ffffffffffffffffffffffffffffffffffffffff1673ffffffffffffffffffffffffffffffffffffffff1673ffffffffffffffffffffffffffffffffffffffff16815260200160018201548152505091509250925050610959565b808061091c90611b41565b9150506107f1565b506040518060400160405280600073ffffffffffffffffffffffffffffffffffffffff16815260200160008152506000915091505b915091565b600080600160009054906101000a900473ffffffffffffffffffffffffffffffffffffffff1673ffffffffffffffffffffffffffffffffffffffff166109a261145d565b73ffffffffffffffffffffffffffffffffffffffff16146109c45760006109c7565b60015b905080610a09576040517f08c379a0000000000000000000000000000000000000000000000000000000008152600401610a0090611976565b60405180910390fd5b6000600160009054906101000a900473ffffffffffffffffffffffffffffffffffffffff1673ffffffffffffffffffffffffffffffffffffffff166108fc859081150290604051600060405180830381858888f1935050505090508015610b7457600080610a76876107e1565b9150915060405180604001604052808873ffffffffffffffffffffffffffffffffffffffff168152602001878460200151610ab19190611b89565b81525060048281548110610ac857610ac7611aba565b5b906000526020600020906002020160008201518160000160006101000a81548173ffffffffffffffffffffffffffffffffffffffff021916908373ffffffffffffffffffffffffffffffffffffffff160217905550602082015181600101559050507f7de9fadad35a83dd3338eef5df3012919ba658514c0ee38b60cf1e5512afe9723088886001604051610b609493929190611bbd565b60405180910390a160019450505050610bb8565b7f7de9fadad35a83dd3338eef5df3012919ba658514c0ee38b60cf1e5512afe9723086866000604051610baa9493929190611bbd565b60405180910390a160009250505b5092915050565b6000600354905090565b6000600260009054906101000a900473ffffffffffffffffffffffffffffffffffffffff16905090565b6000600160009054906101000a900473ffffffffffffffffffffffffffffffffffffffff16905090565b600160009054906101000a900473ffffffffffffffffffffffffffffffffffffffff1681565b600080600160009054906101000a900473ffffffffffffffffffffffffffffffffffffffff1673ffffffffffffffffffffffffffffffffffffffff16610c8761145d565b73ffffffffffffffffffffffffffffffffffffffff1614610ca9576000610cac565b60015b905080610cee576040517f08c379a0000000000000000000000000000000000000000000000000000000008152600401610ce590611976565b60405180910390fd5b600080600260009054906101000a900473ffffffffffffffffffffffffffffffffffffffff1673ffffffffffffffffffffffffffffffffffffffff1630600354604051602401610d3f929190611c02565b6040516020818303038152906040527fe3a4bf29000000000000000000000000000000000000000000000000000000007bffffffffffffffffffffffffffffffffffffffffffffffffffffffff19166020820180517bffffffffffffffffffffffffffffffffffffffffffffffffffffffff8381831617835250505050604051610dc99190611c72565b6000604051808303816000865af19150503d8060008114610e06576040519150601f19603f3d011682016040523d82523d6000602084013e610e0b565b606091505b509150915081610e50576040517f08c379a0000000000000000000000000000000000000000000000000000000008152600401610e4790611cfb565b60405180910390fd5b80806020019051810190610e649190611d47565b935050505090565b600260009054906101000a900473ffffffffffffffffffffffffffffffffffffffff1681565b610e9a611465565b6000600160009054906101000a900473ffffffffffffffffffffffffffffffffffffffff1673ffffffffffffffffffffffffffffffffffffffff16610edd61145d565b73ffffffffffffffffffffffffffffffffffffffff1614610eff576000610f02565b60015b905080610f44576040517f08c379a0000000000000000000000000000000000000000000000000000000008152600401610f3b90611976565b60405180910390fd5b600460405180604001604052808673ffffffffffffffffffffffffffffffffffffffff16815260200185815250908060018154018082558091505060019003906000526020600020906002020160009091909190915060008201518160000160006101000a81548173ffffffffffffffffffffffffffffffffffffffff021916908373ffffffffffffffffffffffffffffffffffffffff1602179055506020820151816001015550507f0c8f8aa5ff72e544d1fc13f5df82d1f5a24144dd0128bcb65885473543ab91b030858560405161102093929190611d74565b60405180910390a16004600160048054905061103c9190611b89565b8154811061104d5761104c611aba565b5b90600052602060002090600202016040518060400160405290816000820160009054906101000a900473ffffffffffffffffffffffffffffffffffffffff1673ffffffffffffffffffffffffffffffffffffffff1673ffffffffffffffffffffffffffffffffffffffff16815260200160018201548152505091505092915050565b6000600260149054906101000a900460ff16905090565b60606004805480602002602001604051908101604052809291908181526020016000905b8282101561119c57838290600052602060002090600202016040518060400160405290816000820160009054906101000a900473ffffffffffffffffffffffffffffffffffffffff1673ffffffffffffffffffffffffffffffffffffffff1673ffffffffffffffffffffffffffffffffffffffff1681526020016001820154815250508152602001906001019061110a565b50505050905090565b600080600160009054906101000a900473ffffffffffffffffffffffffffffffffffffffff1673ffffffffffffffffffffffffffffffffffffffff166111e961145d565b73ffffffffffffffffffffffffffffffffffffffff161461120b57600061120e565b60015b905080611250576040517f08c379a000000000000000000000000000000000000000000000000000000000815260040161124790611976565b60405180910390fd5b60008061125c866107e1565b91509150600073ffffffffffffffffffffffffffffffffffffffff16826000015173ffffffffffffffffffffffffffffffffffffffff16146112d3576040517f08c379a00000000000000000000000000000000000000000000000000000000081526004016112ca90611a08565b60405180910390fd5b6000826000015173ffffffffffffffffffffffffffffffffffffffff166108fc879081150290604051600060405180830381858888f19350505050905080156114105760405180604001604052808873ffffffffffffffffffffffffffffffffffffffff16815260200187856020015161134d9190611b89565b8152506004838154811061136457611363611aba565b5b906000526020600020906002020160008201518160000160006101000a81548173ffffffffffffffffffffffffffffffffffffffff021916908373ffffffffffffffffffffffffffffffffffffffff160217905550602082015181600101559050507f591d3dbd44a185bd80de25b77d81eb65e3244a7f43e1f469e0bfe68dbe4c31e030888860016040516113fc9493929190611bbd565b60405180910390a160019450505050611456565b7f591d3dbd44a185bd80de25b77d81eb65e3244a7f43e1f469e0bfe68dbe4c31e030888860006040516114469493929190611bbd565b60405180910390a1600094505050505b5092915050565b600033905090565b6040518060400160405280600073ffffffffffffffffffffffffffffffffffffffff168152602001600081525090565b600081519050919050565b600082825260208201905092915050565b60005b838110156114cf5780820151818401526020810190506114b4565b60008484015250505050565b6000601f19601f8301169050919050565b60006114f782611495565b61150181856114a0565b93506115118185602086016114b1565b61151a816114db565b840191505092915050565b6000602082019050818103600083015261153f81846114ec565b905092915050565b6000819050919050565b61155a81611547565b82525050565b60006020820190506115756000830184611551565b92915050565b600080fd5b600073ffffffffffffffffffffffffffffffffffffffff82169050919050565b60006115ab82611580565b9050919050565b6115bb816115a0565b81146115c657600080fd5b50565b6000813590506115d8816115b2565b92915050565b6000602082840312156115f4576115f361157b565b5b6000611602848285016115c9565b91505092915050565b600081519050919050565b600082825260208201905092915050565b6000819050602082019050919050565b611640816115a0565b82525050565b61164f81611547565b82525050565b60408201600082015161166b6000850182611637565b50602082015161167e6020850182611646565b50505050565b60006116908383611655565b60408301905092915050565b6000602082019050919050565b60006116b48261160b565b6116be8185611616565b93506116c983611627565b8060005b838110156116fa5781516116e18882611684565b97506116ec8361169c565b9250506001810190506116cd565b5085935050505092915050565b6000602082019050818103600083015261172181846116a9565b905092915050565b60408201600082015161173f6000850182611637565b5060208201516117526020850182611646565b50505050565b600060608201905061176d6000830185611729565b61177a6040830184611551565b9392505050565b61178a81611547565b811461179557600080fd5b50565b6000813590506117a781611781565b92915050565b600080604083850312156117c4576117c361157b565b5b60006117d2858286016115c9565b92505060206117e385828601611798565b9150509250929050565b60008115159050919050565b611802816117ed565b82525050565b600060208201905061181d60008301846117f9565b92915050565b61182c816115a0565b82525050565b60006020820190506118476000830184611823565b92915050565b600061185882611580565b9050919050565b6118688161184d565b82525050565b6000602082019050611883600083018461185f565b92915050565b600060408201905061189e6000830184611729565b92915050565b7f4e487b7100000000000000000000000000000000000000000000000000000000600052602260045260246000fd5b600060028204905060018216806118eb57607f821691505b6020821081036118fe576118fd6118a4565b5b50919050565b7f44796e616d6963506f6f6c204572726f723a204f6e6c79204f776e657220436160008201527f6e206368616e6765204f776e6572000000000000000000000000000000000000602082015250565b6000611960602e836114a0565b915061196b82611904565b604082019050919050565b6000602082019050818103600083015261198f81611953565b9050919050565b7f44796e616d6963506f6f6c204572726f723a2055736572204e6f74204578697360008201527f7420696e2074686973204368616c6c656e676500000000000000000000000000602082015250565b60006119f26033836114a0565b91506119fd82611996565b604082019050919050565b60006020820190508181036000830152611a21816119e5565b9050919050565b7f44796e616d6963506f6f6c204572726f723a2043616e204e6f742052656d6f7660008201527f6520557365722069662055736572206465706f73697420457869737400000000602082015250565b6000611a84603c836114a0565b9150611a8f82611a28565b604082019050919050565b60006020820190508181036000830152611ab381611a77565b9050919050565b7f4e487b7100000000000000000000000000000000000000000000000000000000600052603260045260246000fd5b6000604082019050611afe6000830185611823565b611b0b6020830184611823565b9392505050565b7f4e487b7100000000000000000000000000000000000000000000000000000000600052601160045260246000fd5b6000611b4c82611547565b91507fffffffffffffffffffffffffffffffffffffffffffffffffffffffffffffffff8203611b7e57611b7d611b12565b5b600182019050919050565b6000611b9482611547565b9150611b9f83611547565b9250828203905081811115611bb757611bb6611b12565b5b92915050565b6000608082019050611bd26000830187611823565b611bdf6020830186611823565b611bec6040830185611551565b611bf960608301846117f9565b95945050505050565b6000604082019050611c176000830185611823565b611c246020830184611551565b9392505050565b600081519050919050565b600081905092915050565b6000611c4c82611c2b565b611c568185611c36565b9350611c668185602086016114b1565b80840191505092915050565b6000611c7e8284611c41565b915081905092915050565b7f44796e616d6963506f6f6c204572726f723a2043616e204e6f7420676574205260008201527f65766572736520506f6f6c204164647265737300000000000000000000000000602082015250565b6000611ce56033836114a0565b9150611cf082611c89565b604082019050919050565b60006020820190508181036000830152611d1481611cd8565b9050919050565b611d248161184d565b8114611d2f57600080fd5b50565b600081519050611d4181611d1b565b92915050565b600060208284031215611d5d57611d5c61157b565b5b6000611d6b84828501611d32565b91505092915050565b6000606082019050611d896000830186611823565b611d966020830185611823565b611da36040830184611551565b94935050505056fea2646970667358221220b0e95bacd019c09168bba056d4b41a7f831d8d0c142d3c1c9c1d1208fc54106864736f6c63430008140033",
  "linkReferences": {},
  "deployedLinkReferences": {}
}