{
  "_format": "hh-sol-artifact-1",
  "contractName": "DynamicPool",
  "sourceName": "contracts/dynamicpool/DynamicPool.sol",
  "abi": [
    {
      "inputs": [
        {
          "internalType": "string",
          "name": "_name",
          "type": "string"
        },
        {
          "internalType": "address payable",
          "name": "_owner",
          "type": "address"
        },
        {
          "internalType": "address",
          "name": "_factory",
          "type": "address"
        },
        {
          "internalType": "bool",
          "name": "_form",
          "type": "bool"
        },
        {
          "internalType": "uint256",
          "name": "_idx",
          "type": "uint256"
        }
      ],
      "stateMutability": "nonpayable",
      "type": "constructor"
    },
    {
      "anonymous": false,
      "inputs": [
        {
          "indexed": false,
          "internalType": "address",
          "name": "From",
          "type": "address"
        },
        {
          "indexed": false,
          "internalType": "address",
          "name": "User",
          "type": "address"
        },
        {
          "indexed": false,
          "internalType": "uint256",
          "name": "Deposit",
          "type": "uint256"
        },
        {
          "indexed": false,
          "internalType": "bool",
          "name": "Result",
          "type": "bool"
        }
      ],
      "name": "DepositMoved",
      "type": "event"
    },
    {
      "anonymous": false,
      "inputs": [
        {
          "indexed": false,
          "internalType": "address",
          "name": "Pool",
          "type": "address"
        },
        {
          "indexed": false,
          "internalType": "address",
          "name": "User",
          "type": "address"
        },
        {
          "indexed": false,
          "internalType": "uint256",
          "name": "Deposit",
          "type": "uint256"
        },
        {
          "indexed": false,
          "internalType": "bool",
          "name": "Result",
          "type": "bool"
        }
      ],
      "name": "DepositReturned",
      "type": "event"
    },
    {
      "anonymous": false,
      "inputs": [
        {
          "indexed": false,
          "internalType": "address",
          "name": "From",
          "type": "address"
        },
        {
          "indexed": false,
          "internalType": "address",
          "name": "To",
          "type": "address"
        },
        {
          "indexed": false,
          "internalType": "uint256",
          "name": "Amount",
          "type": "uint256"
        },
        {
          "indexed": false,
          "internalType": "bool",
          "name": "Result",
          "type": "bool"
        }
      ],
      "name": "Transfered",
      "type": "event"
    },
    {
      "anonymous": false,
      "inputs": [
        {
          "indexed": false,
          "internalType": "address",
          "name": "Pool",
          "type": "address"
        },
        {
          "indexed": false,
          "internalType": "address",
          "name": "User",
          "type": "address"
        },
        {
          "indexed": false,
          "internalType": "uint256",
          "name": "Deposit",
          "type": "uint256"
        }
      ],
      "name": "UserAdded",
      "type": "event"
    },
    {
      "anonymous": false,
      "inputs": [
        {
          "indexed": false,
          "internalType": "address",
          "name": "Pool",
          "type": "address"
        },
        {
          "indexed": false,
          "internalType": "address",
          "name": "User",
          "type": "address"
        }
      ],
      "name": "UserDeleted",
      "type": "event"
    },
    {
      "inputs": [
        {
          "internalType": "address",
          "name": "_user",
          "type": "address"
        },
        {
          "internalType": "uint256",
          "name": "_deposit",
          "type": "uint256"
        }
      ],
      "name": "addUser",
      "outputs": [
        {
          "components": [
            {
              "internalType": "address",
              "name": "addr",
              "type": "address"
            },
            {
              "internalType": "uint256",
              "name": "deposit",
              "type": "uint256"
            }
          ],
          "internalType": "struct Struct.User",
          "name": "",
          "type": "tuple"
        }
      ],
      "stateMutability": "nonpayable",
      "type": "function"
    },
    {
      "inputs": [
        {
          "internalType": "address",
          "name": "_user",
          "type": "address"
        }
      ],
      "name": "deleteUser",
      "outputs": [
        {
          "components": [
            {
              "internalType": "address",
              "name": "addr",
              "type": "address"
            },
            {
              "internalType": "uint256",
              "name": "deposit",
              "type": "uint256"
            }
          ],
          "internalType": "struct Struct.User[]",
          "name": "",
          "type": "tuple[]"
        }
      ],
      "stateMutability": "nonpayable",
      "type": "function"
    },
    {
      "inputs": [],
      "name": "factory",
      "outputs": [
        {
          "internalType": "address",
          "name": "",
          "type": "address"
        }
      ],
      "stateMutability": "view",
      "type": "function"
    },
    {
      "inputs": [],
      "name": "getAllUsers",
      "outputs": [
        {
          "components": [
            {
              "internalType": "address",
              "name": "addr",
              "type": "address"
            },
            {
              "internalType": "uint256",
              "name": "deposit",
              "type": "uint256"
            }
          ],
          "internalType": "struct Struct.User[]",
          "name": "",
          "type": "tuple[]"
        }
      ],
      "stateMutability": "view",
      "type": "function"
    },
    {
      "inputs": [],
      "name": "getBalance",
      "outputs": [
        {
          "internalType": "uint256",
          "name": "",
          "type": "uint256"
        }
      ],
      "stateMutability": "view",
      "type": "function"
    },
    {
      "inputs": [],
      "name": "getFactory",
      "outputs": [
        {
          "internalType": "address",
          "name": "",
          "type": "address"
        }
      ],
      "stateMutability": "view",
      "type": "function"
    },
    {
      "inputs": [],
      "name": "getForm",
      "outputs": [
        {
          "internalType": "bool",
          "name": "",
          "type": "bool"
        }
      ],
      "stateMutability": "view",
      "type": "function"
    },
    {
      "inputs": [],
      "name": "getIndex",
      "outputs": [
        {
          "internalType": "uint256",
          "name": "",
          "type": "uint256"
        }
      ],
      "stateMutability": "view",
      "type": "function"
    },
    {
      "inputs": [],
      "name": "getName",
      "outputs": [
        {
          "internalType": "string",
          "name": "",
          "type": "string"
        }
      ],
      "stateMutability": "view",
      "type": "function"
    },
    {
      "inputs": [],
      "name": "getOwner",
      "outputs": [
        {
          "internalType": "address",
          "name": "",
          "type": "address"
        }
      ],
      "stateMutability": "view",
      "type": "function"
    },
    {
      "inputs": [
        {
          "internalType": "address",
          "name": "_user",
          "type": "address"
        }
      ],
      "name": "getUser",
      "outputs": [
        {
          "components": [
            {
              "internalType": "address",
              "name": "addr",
              "type": "address"
            },
            {
              "internalType": "uint256",
              "name": "deposit",
              "type": "uint256"
            }
          ],
          "internalType": "struct Struct.User",
          "name": "",
          "type": "tuple"
        },
        {
          "internalType": "uint256",
          "name": "",
          "type": "uint256"
        }
      ],
      "stateMutability": "view",
      "type": "function"
    },
    {
      "inputs": [],
      "name": "name",
      "outputs": [
        {
          "internalType": "string",
          "name": "",
          "type": "string"
        }
      ],
      "stateMutability": "view",
      "type": "function"
    },
    {
      "inputs": [],
      "name": "owner",
      "outputs": [
        {
          "internalType": "address payable",
          "name": "",
          "type": "address"
        }
      ],
      "stateMutability": "view",
      "type": "function"
    },
    {
      "inputs": [
        {
          "internalType": "address",
          "name": "_user",
          "type": "address"
        },
        {
          "internalType": "uint256",
          "name": "_deposit",
          "type": "uint256"
        }
      ],
      "name": "paybackDeposit",
      "outputs": [
        {
          "internalType": "bool",
          "name": "",
          "type": "bool"
        }
      ],
      "stateMutability": "payable",
      "type": "function"
    },
    {
      "inputs": [],
      "name": "requestReversePool",
      "outputs": [
        {
          "internalType": "address",
          "name": "",
          "type": "address"
        }
      ],
      "stateMutability": "nonpayable",
      "type": "function"
    },
    {
      "inputs": [
        {
          "internalType": "address",
          "name": "_to",
          "type": "address"
        },
        {
          "internalType": "uint256",
          "name": "_amount",
          "type": "uint256"
        }
      ],
      "name": "transferTo",
      "outputs": [
        {
          "internalType": "bool",
          "name": "",
          "type": "bool"
        }
      ],
      "stateMutability": "payable",
      "type": "function"
    },
    {
      "inputs": [
        {
          "internalType": "address",
          "name": "_user",
          "type": "address"
        },
        {
          "internalType": "uint256",
          "name": "_deposit",
          "type": "uint256"
        }
      ],
      "name": "withdrawDeposit",
      "outputs": [
        {
          "internalType": "bool",
          "name": "",
          "type": "bool"
        }
      ],
      "stateMutability": "payable",
      "type": "function"
    },
    {
      "stateMutability": "payable",
      "type": "receive"
    }
  ],
  "bytecode": "0x60806040523480156200001157600080fd5b506040516200289e3803806200289e8339818101604052810190620000379190620003ac565b846000908162000048919062000694565b5083600160006101000a81548173ffffffffffffffffffffffffffffffffffffffff021916908373ffffffffffffffffffffffffffffffffffffffff16021790555082600260006101000a81548173ffffffffffffffffffffffffffffffffffffffff021916908373ffffffffffffffffffffffffffffffffffffffff16021790555081600260146101000a81548160ff0219169083151502179055508060038190555050505050506200077b565b6000604051905090565b600080fd5b600080fd5b600080fd5b600080fd5b6000601f19601f8301169050919050565b7f4e487b7100000000000000000000000000000000000000000000000000000000600052604160045260246000fd5b620001608262000115565b810181811067ffffffffffffffff8211171562000182576200018162000126565b5b80604052505050565b600062000197620000f7565b9050620001a5828262000155565b919050565b600067ffffffffffffffff821115620001c857620001c762000126565b5b620001d38262000115565b9050602081019050919050565b60005b8381101562000200578082015181840152602081019050620001e3565b60008484015250505050565b6000620002236200021d84620001aa565b6200018b565b90508281526020810184848401111562000242576200024162000110565b5b6200024f848285620001e0565b509392505050565b600082601f8301126200026f576200026e6200010b565b5b8151620002818482602086016200020c565b91505092915050565b600073ffffffffffffffffffffffffffffffffffffffff82169050919050565b6000620002b7826200028a565b9050919050565b620002c981620002aa565b8114620002d557600080fd5b50565b600081519050620002e981620002be565b92915050565b6000620002fc826200028a565b9050919050565b6200030e81620002ef565b81146200031a57600080fd5b50565b6000815190506200032e8162000303565b92915050565b60008115159050919050565b6200034b8162000334565b81146200035757600080fd5b50565b6000815190506200036b8162000340565b92915050565b6000819050919050565b620003868162000371565b81146200039257600080fd5b50565b600081519050620003a6816200037b565b92915050565b600080600080600060a08688031215620003cb57620003ca62000101565b5b600086015167ffffffffffffffff811115620003ec57620003eb62000106565b5b620003fa8882890162000257565b95505060206200040d88828901620002d8565b945050604062000420888289016200031d565b935050606062000433888289016200035a565b9250506080620004468882890162000395565b9150509295509295909350565b600081519050919050565b7f4e487b7100000000000000000000000000000000000000000000000000000000600052602260045260246000fd5b60006002820490506001821680620004a657607f821691505b602082108103620004bc57620004bb6200045e565b5b50919050565b60008190508160005260206000209050919050565b60006020601f8301049050919050565b600082821b905092915050565b600060088302620005267fffffffffffffffffffffffffffffffffffffffffffffffffffffffffffffffff82620004e7565b620005328683620004e7565b95508019841693508086168417925050509392505050565b6000819050919050565b6000620005756200056f620005698462000371565b6200054a565b62000371565b9050919050565b6000819050919050565b620005918362000554565b620005a9620005a0826200057c565b848454620004f4565b825550505050565b600090565b620005c0620005b1565b620005cd81848462000586565b505050565b5b81811015620005f557620005e9600082620005b6565b600181019050620005d3565b5050565b601f82111562000644576200060e81620004c2565b6200061984620004d7565b8101602085101562000629578190505b620006416200063885620004d7565b830182620005d2565b50505b505050565b600082821c905092915050565b6000620006696000198460080262000649565b1980831691505092915050565b600062000684838362000656565b9150826002028217905092915050565b6200069f8262000453565b67ffffffffffffffff811115620006bb57620006ba62000126565b5b620006c782546200048d565b620006d4828285620005f9565b600060209050601f8311600181146200070c5760008415620006f7578287015190505b62000703858262000676565b86555062000773565b601f1984166200071c86620004c2565b60005b8281101562000746578489015182556001820191506020850194506020810190506200071f565b8683101562000766578489015162000762601f89168262000656565b8355505b6001600288020188555050505b505050505050565b612113806200078b6000396000f3fe6080604052600436106101025760003560e01c806388cc58e411610095578063c45a015511610064578063c45a015514610341578063d30171931461036c578063d92ca747146103a9578063e2842d79146103d4578063e992ecc8146103ff57610109565b806388cc58e414610295578063893d20e8146102c05780638da5cb5b146102eb578063c3dfe0351461031657610109565b80635c60f226116100d15780635c60f226146101bf5780636f77926b146101fc5780637f07bfdc1461023a57806381045ead1461026a57610109565b806306fdde031461010e57806312065fe01461013957806317d7de7c146101645780632ccb1b301461018f57610109565b3661010957005b600080fd5b34801561011a57600080fd5b5061012361042f565b6040516101309190611744565b60405180910390f35b34801561014557600080fd5b5061014e6104bd565b60405161015b919061177f565b60405180910390f35b34801561017057600080fd5b506101796104c5565b6040516101869190611744565b60405180910390f35b6101a960048036038101906101a49190611829565b610557565b6040516101b69190611884565b60405180910390f35b3480156101cb57600080fd5b506101e660048036038101906101e1919061189f565b61073b565b6040516101f391906119c8565b60405180910390f35b34801561020857600080fd5b50610223600480360381019061021e919061189f565b610a00565b604051610231929190611a19565b60405180910390f35b610254600480360381019061024f9190611829565b610b7d565b6040516102619190611884565b60405180910390f35b34801561027657600080fd5b5061027f610dde565b60405161028c919061177f565b60405180910390f35b3480156102a157600080fd5b506102aa610de8565b6040516102b79190611a51565b60405180910390f35b3480156102cc57600080fd5b506102d5610e12565b6040516102e29190611a51565b60405180910390f35b3480156102f757600080fd5b50610300610e3c565b60405161030d9190611a8d565b60405180910390f35b34801561032257600080fd5b5061032b610e62565b6040516103389190611a51565b60405180910390f35b34801561034d57600080fd5b5061035661108b565b6040516103639190611a51565b60405180910390f35b34801561037857600080fd5b50610393600480360381019061038e9190611829565b6110b1565b6040516103a09190611aa8565b60405180910390f35b3480156103b557600080fd5b506103be6112ee565b6040516103cb9190611884565b60405180910390f35b3480156103e057600080fd5b506103e9611305565b6040516103f691906119c8565b60405180910390f35b61041960048036038101906104149190611829565b6113c4565b6040516104269190611884565b60405180910390f35b6000805461043c90611af2565b80601f016020809104026020016040519081016040528092919081815260200182805461046890611af2565b80156104b55780601f1061048a576101008083540402835291602001916104b5565b820191906000526020600020905b81548152906001019060200180831161049857829003601f168201915b505050505081565b600047905090565b6060600080546104d490611af2565b80601f016020809104026020016040519081016040528092919081815260200182805461050090611af2565b801561054d5780601f106105225761010080835404028352916020019161054d565b820191906000526020600020905b81548152906001019060200180831161053057829003601f168201915b5050505050905090565b600080600160009054906101000a900473ffffffffffffffffffffffffffffffffffffffff1673ffffffffffffffffffffffffffffffffffffffff1661059b61167c565b73ffffffffffffffffffffffffffffffffffffffff16146105bd5760006105c0565b60015b905080610602576040517f08c379a00000000000000000000000000000000000000000000000000000000081526004016105f990611b95565b60405180910390fd5b82471015610645576040517f08c379a000000000000000000000000000000000000000000000000000000000815260040161063c90611c01565b60405180910390fd5b60008473ffffffffffffffffffffffffffffffffffffffff168460405161066b90611c52565b60006040518083038185875af1925050503d80600081146106a8576040519150601f19603f3d011682016040523d82523d6000602084013e6106ad565b606091505b50509050806106f1576040517f08c379a00000000000000000000000000000000000000000000000000000000081526004016106e890611cb3565b60405180910390fd5b7f26bd074035589e6689bb0db89c84834b00e06bf19a57eab48637d3cd8dbf2ae330868660016040516107279493929190611cd3565b60405180910390a160019250505092915050565b60606000600160009054906101000a900473ffffffffffffffffffffffffffffffffffffffff1673ffffffffffffffffffffffffffffffffffffffff1661078061167c565b73ffffffffffffffffffffffffffffffffffffffff16146107a25760006107a5565b60015b9050806107e7576040517f08c379a00000000000000000000000000000000000000000000000000000000081526004016107de90611b95565b60405180910390fd5b6000806107f385610a00565b91509150600073ffffffffffffffffffffffffffffffffffffffff16826000015173ffffffffffffffffffffffffffffffffffffffff161461086a576040517f08c379a000000000000000000000000000000000000000000000000000000000815260040161086190611d8a565b60405180910390fd5b60008260200151116108b1576040517f08c379a00000000000000000000000000000000000000000000000000000000081526004016108a890611e1c565b60405180910390fd5b600481815481106108c5576108c4611e3c565b5b9060005260206000209060020201600080820160006101000a81549073ffffffffffffffffffffffffffffffffffffffff0219169055600182016000905550507ff93da4a59a937584eca9a6054bd8731085e1c7d8af5209783a2abb15e102a98f3086604051610936929190611e6b565b60405180910390a16004805480602002602001604051908101604052809291908181526020016000905b828210156109f257838290600052602060002090600202016040518060400160405290816000820160009054906101000a900473ffffffffffffffffffffffffffffffffffffffff1673ffffffffffffffffffffffffffffffffffffffff1673ffffffffffffffffffffffffffffffffffffffff16815260200160018201548152505081526020019060010190610960565b505050509350505050919050565b610a08611684565b600080600090505b600480549050811015610b43578373ffffffffffffffffffffffffffffffffffffffff1660048281548110610a4857610a47611e3c565b5b906000526020600020906002020160000160009054906101000a900473ffffffffffffffffffffffffffffffffffffffff1673ffffffffffffffffffffffffffffffffffffffff1603610b305760048181548110610aa957610aa8611e3c565b5b906000526020600020906002020181816040518060400160405290816000820160009054906101000a900473ffffffffffffffffffffffffffffffffffffffff1673ffffffffffffffffffffffffffffffffffffffff1673ffffffffffffffffffffffffffffffffffffffff16815260200160018201548152505091509250925050610b78565b8080610b3b90611ec3565b915050610a10565b506040518060400160405280600073ffffffffffffffffffffffffffffffffffffffff16815260200160008152506000915091505b915091565b600080600160009054906101000a900473ffffffffffffffffffffffffffffffffffffffff1673ffffffffffffffffffffffffffffffffffffffff16610bc161167c565b73ffffffffffffffffffffffffffffffffffffffff1614610be3576000610be6565b60015b905080610c28576040517f08c379a0000000000000000000000000000000000000000000000000000000008152600401610c1f90611b95565b60405180910390fd5b6000600160009054906101000a900473ffffffffffffffffffffffffffffffffffffffff1673ffffffffffffffffffffffffffffffffffffffff166108fc859081150290604051600060405180830381858888f1935050505090508015610d9357600080610c9587610a00565b9150915060405180604001604052808873ffffffffffffffffffffffffffffffffffffffff168152602001878460200151610cd09190611f0b565b81525060048281548110610ce757610ce6611e3c565b5b906000526020600020906002020160008201518160000160006101000a81548173ffffffffffffffffffffffffffffffffffffffff021916908373ffffffffffffffffffffffffffffffffffffffff160217905550602082015181600101559050507f7de9fadad35a83dd3338eef5df3012919ba658514c0ee38b60cf1e5512afe9723088886001604051610d7f9493929190611cd3565b60405180910390a160019450505050610dd7565b7f7de9fadad35a83dd3338eef5df3012919ba658514c0ee38b60cf1e5512afe9723086866000604051610dc99493929190611cd3565b60405180910390a160009250505b5092915050565b6000600354905090565b6000600260009054906101000a900473ffffffffffffffffffffffffffffffffffffffff16905090565b6000600160009054906101000a900473ffffffffffffffffffffffffffffffffffffffff16905090565b600160009054906101000a900473ffffffffffffffffffffffffffffffffffffffff1681565b600080600160009054906101000a900473ffffffffffffffffffffffffffffffffffffffff1673ffffffffffffffffffffffffffffffffffffffff16610ea661167c565b73ffffffffffffffffffffffffffffffffffffffff1614610ec8576000610ecb565b60015b905080610f0d576040517f08c379a0000000000000000000000000000000000000000000000000000000008152600401610f0490611b95565b60405180910390fd5b600080600260009054906101000a900473ffffffffffffffffffffffffffffffffffffffff1673ffffffffffffffffffffffffffffffffffffffff1630600354604051602401610f5e929190611f3f565b6040516020818303038152906040527fe3a4bf29000000000000000000000000000000000000000000000000000000007bffffffffffffffffffffffffffffffffffffffffffffffffffffffff19166020820180517bffffffffffffffffffffffffffffffffffffffffffffffffffffffff8381831617835250505050604051610fe89190611fa4565b6000604051808303816000865af19150503d8060008114611025576040519150601f19603f3d011682016040523d82523d6000602084013e61102a565b606091505b50915091508161106f576040517f08c379a00000000000000000000000000000000000000000000000000000000081526004016110669061202d565b60405180910390fd5b808060200190518101906110839190612079565b935050505090565b600260009054906101000a900473ffffffffffffffffffffffffffffffffffffffff1681565b6110b9611684565b6000600160009054906101000a900473ffffffffffffffffffffffffffffffffffffffff1673ffffffffffffffffffffffffffffffffffffffff166110fc61167c565b73ffffffffffffffffffffffffffffffffffffffff161461111e576000611121565b60015b905080611163576040517f08c379a000000000000000000000000000000000000000000000000000000000815260040161115a90611b95565b60405180910390fd5b600460405180604001604052808673ffffffffffffffffffffffffffffffffffffffff16815260200185815250908060018154018082558091505060019003906000526020600020906002020160009091909190915060008201518160000160006101000a81548173ffffffffffffffffffffffffffffffffffffffff021916908373ffffffffffffffffffffffffffffffffffffffff1602179055506020820151816001015550507f0c8f8aa5ff72e544d1fc13f5df82d1f5a24144dd0128bcb65885473543ab91b030858560405161123f939291906120a6565b60405180910390a16004600160048054905061125b9190611f0b565b8154811061126c5761126b611e3c565b5b90600052602060002090600202016040518060400160405290816000820160009054906101000a900473ffffffffffffffffffffffffffffffffffffffff1673ffffffffffffffffffffffffffffffffffffffff1673ffffffffffffffffffffffffffffffffffffffff16815260200160018201548152505091505092915050565b6000600260149054906101000a900460ff16905090565b60606004805480602002602001604051908101604052809291908181526020016000905b828210156113bb57838290600052602060002090600202016040518060400160405290816000820160009054906101000a900473ffffffffffffffffffffffffffffffffffffffff1673ffffffffffffffffffffffffffffffffffffffff1673ffffffffffffffffffffffffffffffffffffffff16815260200160018201548152505081526020019060010190611329565b50505050905090565b600080600160009054906101000a900473ffffffffffffffffffffffffffffffffffffffff1673ffffffffffffffffffffffffffffffffffffffff1661140861167c565b73ffffffffffffffffffffffffffffffffffffffff161461142a57600061142d565b60015b90508061146f576040517f08c379a000000000000000000000000000000000000000000000000000000000815260040161146690611b95565b60405180910390fd5b60008061147b86610a00565b91509150600073ffffffffffffffffffffffffffffffffffffffff16826000015173ffffffffffffffffffffffffffffffffffffffff16146114f2576040517f08c379a00000000000000000000000000000000000000000000000000000000081526004016114e990611d8a565b60405180910390fd5b6000826000015173ffffffffffffffffffffffffffffffffffffffff166108fc879081150290604051600060405180830381858888f193505050509050801561162f5760405180604001604052808873ffffffffffffffffffffffffffffffffffffffff16815260200187856020015161156c9190611f0b565b8152506004838154811061158357611582611e3c565b5b906000526020600020906002020160008201518160000160006101000a81548173ffffffffffffffffffffffffffffffffffffffff021916908373ffffffffffffffffffffffffffffffffffffffff160217905550602082015181600101559050507f591d3dbd44a185bd80de25b77d81eb65e3244a7f43e1f469e0bfe68dbe4c31e0308888600160405161161b9493929190611cd3565b60405180910390a160019450505050611675565b7f591d3dbd44a185bd80de25b77d81eb65e3244a7f43e1f469e0bfe68dbe4c31e030888860006040516116659493929190611cd3565b60405180910390a1600094505050505b5092915050565b600033905090565b6040518060400160405280600073ffffffffffffffffffffffffffffffffffffffff168152602001600081525090565b600081519050919050565b600082825260208201905092915050565b60005b838110156116ee5780820151818401526020810190506116d3565b60008484015250505050565b6000601f19601f8301169050919050565b6000611716826116b4565b61172081856116bf565b93506117308185602086016116d0565b611739816116fa565b840191505092915050565b6000602082019050818103600083015261175e818461170b565b905092915050565b6000819050919050565b61177981611766565b82525050565b60006020820190506117946000830184611770565b92915050565b600080fd5b600073ffffffffffffffffffffffffffffffffffffffff82169050919050565b60006117ca8261179f565b9050919050565b6117da816117bf565b81146117e557600080fd5b50565b6000813590506117f7816117d1565b92915050565b61180681611766565b811461181157600080fd5b50565b600081359050611823816117fd565b92915050565b600080604083850312156118405761183f61179a565b5b600061184e858286016117e8565b925050602061185f85828601611814565b9150509250929050565b60008115159050919050565b61187e81611869565b82525050565b60006020820190506118996000830184611875565b92915050565b6000602082840312156118b5576118b461179a565b5b60006118c3848285016117e8565b91505092915050565b600081519050919050565b600082825260208201905092915050565b6000819050602082019050919050565b611901816117bf565b82525050565b61191081611766565b82525050565b60408201600082015161192c60008501826118f8565b50602082015161193f6020850182611907565b50505050565b60006119518383611916565b60408301905092915050565b6000602082019050919050565b6000611975826118cc565b61197f81856118d7565b935061198a836118e8565b8060005b838110156119bb5781516119a28882611945565b97506119ad8361195d565b92505060018101905061198e565b5085935050505092915050565b600060208201905081810360008301526119e2818461196a565b905092915050565b604082016000820151611a0060008501826118f8565b506020820151611a136020850182611907565b50505050565b6000606082019050611a2e60008301856119ea565b611a3b6040830184611770565b9392505050565b611a4b816117bf565b82525050565b6000602082019050611a666000830184611a42565b92915050565b6000611a778261179f565b9050919050565b611a8781611a6c565b82525050565b6000602082019050611aa26000830184611a7e565b92915050565b6000604082019050611abd60008301846119ea565b92915050565b7f4e487b7100000000000000000000000000000000000000000000000000000000600052602260045260246000fd5b60006002820490506001821680611b0a57607f821691505b602082108103611b1d57611b1c611ac3565b5b50919050565b7f44796e616d6963506f6f6c204572726f723a204f6e6c79204f776e657220436160008201527f6e206368616e6765204f776e6572000000000000000000000000000000000000602082015250565b6000611b7f602e836116bf565b9150611b8a82611b23565b604082019050919050565b60006020820190508181036000830152611bae81611b72565b9050919050565b7f4e6f7420656e6f7567682062616c616e63652e00000000000000000000000000600082015250565b6000611beb6013836116bf565b9150611bf682611bb5565b602082019050919050565b60006020820190508181036000830152611c1a81611bde565b9050919050565b600081905092915050565b50565b6000611c3c600083611c21565b9150611c4782611c2c565b600082019050919050565b6000611c5d82611c2f565b9150819050919050565b7f5472616e73666572206661696c65642e00000000000000000000000000000000600082015250565b6000611c9d6010836116bf565b9150611ca882611c67565b602082019050919050565b60006020820190508181036000830152611ccc81611c90565b9050919050565b6000608082019050611ce86000830187611a42565b611cf56020830186611a42565b611d026040830185611770565b611d0f6060830184611875565b95945050505050565b7f44796e616d6963506f6f6c204572726f723a2055736572204e6f74204578697360008201527f7420696e2074686973204368616c6c656e676500000000000000000000000000602082015250565b6000611d746033836116bf565b9150611d7f82611d18565b604082019050919050565b60006020820190508181036000830152611da381611d67565b9050919050565b7f44796e616d6963506f6f6c204572726f723a2043616e204e6f742052656d6f7660008201527f6520557365722069662055736572206465706f73697420457869737400000000602082015250565b6000611e06603c836116bf565b9150611e1182611daa565b604082019050919050565b60006020820190508181036000830152611e3581611df9565b9050919050565b7f4e487b7100000000000000000000000000000000000000000000000000000000600052603260045260246000fd5b6000604082019050611e806000830185611a42565b611e8d6020830184611a42565b9392505050565b7f4e487b7100000000000000000000000000000000000000000000000000000000600052601160045260246000fd5b6000611ece82611766565b91507fffffffffffffffffffffffffffffffffffffffffffffffffffffffffffffffff8203611f0057611eff611e94565b5b600182019050919050565b6000611f1682611766565b9150611f2183611766565b9250828203905081811115611f3957611f38611e94565b5b92915050565b6000604082019050611f546000830185611a42565b611f616020830184611770565b9392505050565b600081519050919050565b6000611f7e82611f68565b611f888185611c21565b9350611f988185602086016116d0565b80840191505092915050565b6000611fb08284611f73565b915081905092915050565b7f44796e616d6963506f6f6c204572726f723a2043616e204e6f7420676574205260008201527f65766572736520506f6f6c204164647265737300000000000000000000000000602082015250565b60006120176033836116bf565b915061202282611fbb565b604082019050919050565b600060208201905081810360008301526120468161200a565b9050919050565b61205681611a6c565b811461206157600080fd5b50565b6000815190506120738161204d565b92915050565b60006020828403121561208f5761208e61179a565b5b600061209d84828501612064565b91505092915050565b60006060820190506120bb6000830186611a42565b6120c86020830185611a42565b6120d56040830184611770565b94935050505056fea26469706673582212207ee6a86a46d2bb2b4813875d065d97d62785deda31f5013a70c310e5a80cde7664736f6c63430008140033",
  "linkReferences": {},
  "deployedLinkReferences": {}
}